:020000040800F2
:10000000B8190020C90100085D2600082125000854
:1000100059260008D1020008E5660008000000002B
:10002000000000000000000000000000212E000879
:100030008D03000800000000E12D0008792E000863
:10004000E3010008E3010008E3010008E301000800
:10005000E3010008E3010008E3010008E3010008F0
:10006000E3010008E3010008E3010008E3010008E0
:10007000E3010008E3010008E3010008E3010008D0
:10008000E3010008E3010008E3010008E3010008C0
:1000900081650008E3010008E3010008E3010008AE
:1000A000E3010008E3010008E3010008E3010008A0
:1000B000E3010008E3010008E3010008E301000890
:1000C000E3010008E3010008E3010008E301000880
:1000D000E3010008E3010008E3010008E301000870
:1000E000E3010008E3010008E301000800F002F862
:1000F00000F05AF80AA090E8000C82448344AAF168
:100100000107DA4501D100F04FF8AFF2090EBAE865
:100110000F0013F0010F18BFFB1A43F0010318473B
:1001200008670000286700000A444FF0000C10F830
:10013000013B13F0070408BF10F8014B1D1108BF65
:1001400010F8015B641E05D010F8016B641E01F805
:10015000016BF9D113F0080F1EBF10F8014BAD1C55
:100160000C1B09D16D1E58BF01F801CBFAD505E073
:1001700014F8016B01F8016B6D1EF9D59142D6D3CD
:10018000704700000023002400250026103A28BFF5
:1001900078C1FBD8520728BF30C148BF0B607047F9
:1001A0001FB51FBD10B510BD00F058F81146FFF780
:1001B000F7FF06F0F9FA00F076F803B4FFF7F2FF64
:1001C00003BC00F07DF8000009488047094800475B
:1001D000FEE7FEE7FEE7FEE7FEE7FEE7FEE7FEE7F7
:1001E000FEE7FEE704480549054A064B7047000054
:1001F000112F0008ED000008B8130020B8190020E6
:10020000B8150020B81500204FF0000200B51346C5
:1002100094469646203922BFA0E80C50A0E80C5026
:10022000B1F12001BFF4F7AF090728BFA0E80C50D7
:1002300048BF0CC05DF804EB890028BF40F8042BD0
:1002400008BF704748BF20F8022B11F0804F18BF3D
:1002500000F8012B7047704770477047754600F0F3
:100260002BF8AE4605006946534620F00700854648
:1002700018B020B5FFF7B6FFBDE820404FF00006EC
:100280004FF000074FF000084FF0000BAC46ACE811
:10029000C009ACE8C009ACE8C009ACE8C00921F06D
:1002A00007018D46704710B50446AFF30080204625
:1002B000BDE81040FFF781BF00487047780100207B
:1002C00001491820ABBEFEE726000200704700007F
:1002D000FFE7FEE784B08DF80F000291ADF806202D
:1002E0009DF80F000146009123281DD80099DFE8F2
:1002F00001F012131415161B1B1B1B1B1B1B1B1BB6
:100300001B1B1B1B1B1B1B1B1B1B1B1B1B1B1B1B3D
:100310001B1B1718191A08E007E006E005E004E0C7
:1003200003E002E001E000E0FFE7002004B07047D6
:100330000020704780B582B040F6FC50C2F2000049
:10034000009040F6FC11C2F200010022019202F07E
:10035000BBFF009840F2FC51C2F2000102F0A6FF80
:10036000019802B080BD000080B584B00390029176
:10037000039940F6FC50C2F20000019002F096FF93
:10038000019802F04DFF002004B080BD70470000CE
:1003900081B0EFF3108072B60090FFE7FEE7000037
:1003A00080B584B04FF2E870C1F6FF70006803902A
:1003B0004FF2EC70C1F6FF70006802904FF2F070DF
:1003C000C1F6FF70006801900199039808440390FA
:1003D000039888B1FFE7039840F25811C2F2000178
:1003E00000910231082202F09DF800990298123122
:1003F000042202F097F8FFE704B080BD41F2B0306C
:10040000C2F200000068704740F27210C2F20000B1
:10041000027841F2B031C2F200010868104408606D
:100420007047000080B542F20001C4F20201086882
:1004300040F010000860032000F096F80F2000F054
:1004400005F800F03BF8002080BD000080B582B0C8
:10045000009040F21C00C2F20000006840F27211ED
:10046000C2F200010A784FF47A71B1FBF2F1B0FBED
:10047000F1F002F04DF820B1FFE701208DF8070000
:1004800018E000980F280DD8FFE700994FF0FF30D3
:10049000002200F04FF8009840F27411C2F20001FF
:1004A000086003E001208DF8070003E000208DF8CC
:1004B0000700FFE79DF8070002B080BD83B0FFE7AB
:1004C00041F21800C4F20200016841F0010101602C
:1004D000006800F0010002900298FFE7FFE741F298
:1004E0001C00C4F20200016841F080510160006804
:1004F00000F0805001900198FFE7FFE70421C4F26B
:10050000010108680090009820F0E06000900098D9
:1005100040F00070009000980860FFE703B070475B
:1005200080B582B08DF807009DF9070006F0DCF871
:1005300002B080BD80B586B08DF81700049103929B
:100540000020029006F0E8F802909DF91700019053
:1005500002980499039A02F083F80146019806F084
:10056000E3F806B080BD000080B582B0019001982C
:1005700006F0FCF802B080BD84B00390ADF80A101C
:10058000ADF808200193BDF80A00000600280CD53C
:10059000FFE70398BDF80A1001F0070101EB8101A4
:1005A00000EBC100283000900AE00398BDF80A1063
:1005B00001EB810100EBC10000F5B4700090FFE792
:1005C000BDF8080038B9FFE70099002008730198CA
:1005D0000099C8800AE000990120087301980099E9
:1005E0000881BDF8060000994881FFE7002004B0AB
:1005F0007047000082B001908DF803109DF8030051
:10060000012801D1FFE700E0FFE702B070470000DA
:1006100080B582B001908DF80310019AD2F8EC02F7
:100620009DF8031001EB810302EBC302D26B03F0D0
:100630004FFB02B080BD000080B582B001908DF804
:100640000310019AD2F8EC029DF8031001EB81032C
:1006500002EBC302D2F87C2103F0ECFB02B080BDB8
:1006600080B584B002908DF807109DF80700000651
:1006700000280FD5FFE702989DF8071001F0070149
:1006800001EB810100EBC1002830009000990120AE
:1006900048700FE002989DF8071001F0070101EB88
:1006A000810100EBC10000F5B470009000990020BA
:1006B0004870FFE79DF8070000F0070000990870F8
:1006C000FFE7029890F8A802012804D1FFE7022072
:1006D0008DF80F0014E00299012081F8A802FFE7CD
:1006E000FFE702980068009904F050FDFFE70299C7
:1006F000002081F8A802FFE700208DF80F00FFE737
:100700009DF80F0004B080BD80B584B002908DF8D4
:1007100007109DF8070000F00F0002994968884211
:1007200004D9FFE701208DF80F004DE09DF8070088
:10073000000600280FD5FFE702989DF8071001F08A
:10074000070101EB810100EBC10028300090009906
:10075000012048700FE002989DF8071001F0070192
:1007600001EB810100EBC10000F5B470009000992D
:1007700000204870FFE70099002088709DF807006E
:1007800000F0070000990870FFE7029890F8A802AF
:10079000012804D1FFE702208DF80F0014E0029930
:1007A000012081F8A802FFE7FFE70298006800999E
:1007B00004F0E2FEFFE70299002081F8A802FFE7BB
:1007C00000208DF80F00FFE79DF80F0004B080BDFA
:1007D00080B586B005900491ADF80E20BDF80E00EE
:1007E0004004002877D5FFE705980068B0F850006E
:1007F0000499097800EBC1010598006800EB4100FD
:10080000B0F804046FF39F20ADF80C0004988069E1
:10081000BDF80C10884207D3FFE7BDF80C200499FF
:100820008869801A886103E0049900208861FFE7E5
:1008300004988069F8B9FFE7FFE705980068049914
:10084000097830F821004BF68F710840ADF80A00A6
:10085000BDF80A0080F40050ADF80A00BDF80A00A7
:1008600048F28001084305990968049A127821F832
:100870002200FFE7FFE7BDF80E00400600281BD569
:10088000FFE7FFE7FFE7059800680499097830F86B
:10089000210048F68F710840ADF80800BDF8080047
:1008A00048F2C001084305990968049A127821F8B2
:1008B0002200FFE7FFE7FFE7BDF80C0050B1FFE7BC
:1008C00005980068049A51691289BDF80C3005F04A
:1008D00069FEFFE776E005980068B0F850000499DB
:1008E000097800EBC1010598006800EB4100B0F801
:1008F0000C046FF39F20ADF80C0004988069BDF8DC
:100900000C10884207D3FFE7BDF80C2004998869D2
:10091000801A886103E0049900208861FFE7049849
:100920008069F8B9FFE7FFE705980068049909783E
:1009300030F821004BF68F710840ADF80600BDF885
:10094000060080F40050ADF80600BDF8060048F23D
:100950008001084305990968049A127821F8220059
:10096000FFE7FFE7BDF80E00400600281BD4FFE7B5
:10097000FFE7FFE7059800680499097830F821003F
:1009800048F68F710840ADF80400BDF8040048F245
:10099000C001084305990968049A127821F82200D9
:1009A000FFE7FFE7FFE7BDF80C0050B1FFE7059850
:1009B0000068049A51695289BDF80C3005F0F2FDC7
:1009C000FFE7FFE7BDF80C0006B080BD80B5A6B01C
:1009D00025902491ADF88E20BDF88E0040060028A9
:1009E00040F1BB81FFE725980068B0F850002499DA
:1009F000097800EBC1012598006800EB4100B0F8D0
:100A000004046FF39F20ADF8860024988069BDF838
:100A10008610884207D9FFE7BDF8862024998869A7
:100A2000801A886103E0249900208861FFE72498F8
:100A30008069002840F0B080FFE7FFE72498407805
:100A400008BBFFE7FFE7259800682090259800681D
:100A5000B0F85010209808442090209824990978E4
:100A600000EB011000F204401F90FFE71F99088877
:100A70006FF39F2008801F99088840F40040088089
:100A8000FFE7FFE71DE024984078012818D1FFE731
:100A9000FFE7259800681D9025980068B0F8501071
:100AA0001D9808441D901D982499097800EB0110A9
:100AB00000F204401C901C9900200880FFE7FFE72B
:100AC000FFE7FFE7FFE7259800681B902498407830
:100AD00008BBFFE7FFE72598006819902598006894
:100AE000B0F8501019980844199019982499097869
:100AF00000EB011000F20C401890FFE718990888ED
:100B00006FF39F2008801899088840F400400880FF
:100B1000FFE7FFE718E024984078012813D1FFE7AA
:100B200025980068B0F850101B9808441B901B983B
:100B30002499097800EB011000F20C401A901A99E0
:100B400000200880FFE7FFE7FFE725982499097850
:100B5000FFF75EFDBDF88E00400400281BD5FFE7BF
:100B6000FFE7FFE7259800682499097830F821000D
:100B700048F68F710840ADF85A00BDF85A004CF2A3
:100B80008001084325990968249A127821F82200E7
:100B9000FFE7FFE7FFE7DFE0BDF88E004004002835
:100BA0001BD5FFE7FFE7FFE7259800682499097840
:100BB00030F8210048F68F710840ADF85800BDF8B4
:100BC00058004CF28001084325990968249A12784C
:100BD00021F82200FFE7FFE7FFE7249890F82400C0
:100BE000012840F0B880FFE7BDF8862024994869C5
:100BF00010444861BDF886202499C8691044C86132
:100C000024980169006A884209D3FFE724980069A3
:100C10002290229A2499086A801A086216E0249881
:100C2000006A40B9FFE7BDF88600229024990020B1
:100C300081F8240009E02499002081F824002499F7
:100C4000096A229124990862FFE7FFE7FFE72498E9
:100C50004078002856D1FFE7FFE7259800681590F7
:100C600025980068B0F8501015980844159015980C
:100C70002499097800EB011000F204401490FFE77A
:100C8000149908886FF39F20088022983F2817D373
:100C9000FFE7FFE72298400913909DF88800C006FF
:100CA00020B9FFE7139801381390FFE7139A1499BE
:100CB000088840EA822040F400400880FFE71EE0F8
:100CC000229830B9FFE71499088840F40040088062
:100CD00014E0FFE72298400813909DF88800C007B1
:100CE00020B1FFE7139801301390FFE7139A14998E
:100CF000088840EA82200880FFE7FFE7FFE7FFE778
:100D0000FFE71DE024984078012818D1FFE7FFE7AE
:100D100025980068129025980068B0F85010129835
:100D20000844129012982499097800EB011000F2FF
:100D300004401190229811990880FFE7FFE7FFE730
:100D4000FFE725980068249A51691289BDF8883018
:100D500005F086FCFFE7FFE7B7E125980068B0F8EB
:100D600050002499097800EBC1012598006800EB38
:100D70004100B0F80C046FF39F20ADF88600249872
:100D80008069BDF88610884207D3FFE7BDF886204A
:100D900024998869801A886103E024990020886179
:100DA000FFE724988069002840F0B080FFE7FFE764
:100DB0002498407808BBFFE7FFE72598006810906B
:100DC00025980068B0F850101098084410901098BA
:100DD0002499097800EB011000F204400F90FFE71E
:100DE0000F9908886FF39F2008800F99088840F4B6
:100DF00000400880FFE7FFE71DE0249840780128C5
:100E000018D1FFE7FFE7259800680D902598006846
:100E1000B0F850100D9808440D900D982499097859
:100E200000EB011000F204400C900C9900200880A7
:100E3000FFE7FFE7FFE7FFE7FFE7259800680B9074
:100E40002498407808BBFFE7FFE7259800680990E1
:100E500025980068B0F8501009980844099009983E
:100E60002499097800EB011000F20C400890FFE78C
:100E7000089908886FF39F2008800899088840F433
:100E800000400880FFE7FFE718E024984078012839
:100E900013D1FFE725980068B0F850100B9808446C
:100EA0000B900B982499097800EB011000F20C408C
:100EB0000A900A9900200880FFE7FFE7FFE72598DE
:100EC00024990978FFF7A4FBBDF88E0040040028A0
:100ED0001BD4FFE7FFE7FFE725980068249909780E
:100EE00030F8210048F68F710840ADF81A00BDF8BF
:100EF0001A004CF28001084325990968249A127857
:100F000021F82200FFE7FFE7FFE7DDE0BDF88E00F4
:100F1000400400281BD4FFE7FFE7FFE7259800689F
:100F20002499097830F8210048F68F710840ADF80F
:100F30001800BDF818004CF2800108432599096893
:100F4000249A127821F82200FFE7FFE7FFE72498B0
:100F500090F82400012840F0B680FFE7BDF8862015
:100F60002499486910444861BDF886202499C869CD
:100F70001044C86124980169006A884209D3FFE7D8
:100F8000249800692290229A2499086A801A08629B
:100F900016E02498006A40B9FFE7BDF88600229069
:100FA0002499002081F8240009E02498006A229006
:100FB000249900200862249981F82400FFE7FFE7C4
:100FC000FFE725980068059024984078002856D1BE
:100FD000FFE7FFE725980068039025980068B0F8C0
:100FE000501003980844039003982499097800EB63
:100FF000011000F20C400290FFE7029908886FF39D
:101000009F20088022983F2817D3FFE7FFE7229808
:10101000400901909DF88800C00620B9FFE70198BB
:1010200001380190FFE7019A0299088840EA82207E
:1010300040F400400880FFE71EE0229830B9FFE747
:101040000299088840F40040088014E0FFE72298E5
:10105000400801909DF88800C00720B1FFE7019883
:1010600001300190FFE7019A0299088840EA822046
:101070000880FFE7FFE7FFE7FFE7FFE718E02498B6
:101080004078012813D1FFE725980068B0F8501088
:1010900005980844059005982499097800EB0110FB
:1010A00000F20C400490229804990880FFE7FFE7C3
:1010B000FFE725980068249A51695289BDF8883065
:1010C00005F0CEFAFFE7FFE7FFE7FFE725980068A6
:1010D0002499097830F8210048F6BF710840ADF82E
:1010E0000200BDF8020080F01000ADF80200BDF86B
:1010F000020080F02000ADF80200BDF8020048F2C6
:101100008001084325990968249A127821F8220061
:10111000FFE7002026B080BD82B001908DF803105B
:1011200001989DF8031001F0070101EB810100EB2C
:10113000C100D0F8840102B07047000080B586B0CD
:1011400004908DF80F10ADF80C208DF80B300020B6
:101150008DF80A009DF80F00000600280FD5FFE764
:1011600004989DF80F1001F0070101EB810100EBDD
:10117000C100283001900199012048700FE00498C7
:101180009DF80F1001F0070101EB810100EBC10098
:1011900000F5B4700190019900204870FFE79DF8B8
:1011A0000F0000F0070001990870BDF80C000199CC
:1011B00008619DF80B000199C8709DF80B0002288A
:1011C00004D1FFE7019900200871FFE7FFE70498C9
:1011D00090F8A802012804D1FFE702208DF817003B
:1011E00015E00499012081F8A802FFE7FFE70498C1
:1011F0000068019903F066FCFFE70499002081F87C
:10120000A802FFE79DF80A008DF81700FFE79DF898
:10121000170006B080BD000080B586B005908DF83F
:1012200013100392029305989DF8131001F0070123
:1012300001EB810100EBC10000F5B470019003984F
:1012400001994861029801998861019900200090F4
:10125000C861019948709DF8130000F007000199DA
:10126000087005980068019904F06EFA009806B0BD
:1012700080BD000080B584B002908DF807109DF805
:10128000070000F0070002994968884204D9FFE787
:1012900001208DF80F0057E09DF807000006002898
:1012A0000FD5FFE702989DF8071001F0070101EB49
:1012B000810100EBC10028300090009901204870A6
:1012C0000DE002989DF8071001EB810100EBC100D1
:1012D00000F5B4700090009900204870FFE7009975
:1012E000012088709DF8070000F007000099087041
:1012F000FFE7029890F8A802012804D1FFE7022036
:101300008DF80F0020E00299012081F8A802FFE784
:10131000FFE702980068009904F0D2F99DF80700F1
:10132000400738B9FFE70299086801F52C7104F00D
:101330001DF9FFE7FFE70299002081F8A802FFE707
:1013400000208DF80F00FFE79DF80F0004B080BD6E
:1013500080B586B005908DF813100392029305981E
:101360009DF8131001F0070101EB810100EBC100B2
:101370002830019003980199486102980199886189
:101380000199012081F824000299019A1162019AC1
:1013900000210091D161019948709DF8130000F07F
:1013A00007000199087005980068019904F0CCF9CC
:1013B000009806B080BD000080B588B007900798FF
:1013C000006805F0E5F806909DF819000006002871
:1013D00004D5FFE7079801F079F9EDE09DF81900D1
:1013E0004007002810D5FFE707980168B1F84400CE
:1013F00020F48060A1F84400079800F02BFA0798C9
:10140000002100F057FAD7E09DF8190040060028A7
:1014100009D5FFE707980168B1F8440020F480403F
:10142000A1F84400C8E09DF819008006002809D5FD
:10143000FFE707980168B1F8440020F40050A1F8D4
:101440004400B9E09DF81900C00600281CD5FFE74C
:1014500007980168B1F8400020F00400A1F84000AE
:1014600007980168B1F8400020F00800A1F840009A
:10147000079800F00BFA07980168B1F8440020F4CF
:101480008050A1F8440097E09DF81900000700285B
:1014900072D5FFE700208DF80700FFE79DF80700F1
:1014A000072812D8FFE7079800689DF8071030F862
:1014B00021009DF8072002A921F81200FFE79DF8FE
:1014C000070001308DF80700E8E707980168B1F8D8
:1014D000400040F00100A1F8400007980168B1F811
:1014E000400020F00100A1F84000FFE707980068E5
:1014F000B0F844004005002801D4FFE7F6E707985C
:101500000168B1F8440020F48060A1F84400002094
:101510008DF80700FFE79DF80700072810D8FFE7C0
:101520009DF8072002A830F812000799096821F8F1
:101530002200FFE79DF8070001308DF80700EAE779
:1015400007980168B1F8400040F00800A1F8400099
:1015500007980168B1F8440020F40060A1F8440045
:1015600007980168B1F8400040F00400A1F840007D
:10157000079800F009FA1FE09DF81900800700287D
:101580000CD5FFE707980168B1F8440020F400701B
:10159000A1F84400079800F083F90DE09DF81900C8
:1015A000C00748B1FFE707980168B1F8440020F48C
:1015B0008070A1F84400FFE708B080BDF0B58DB0A1
:1015C0000B900B9820B9FFE701208DF8330015E14F
:1015D0000B9890F8A90240B9FFE70B99002081F819
:1015E000A8020B9800F00EF9FFE70B99032081F891
:1015F000A9020B98006803F0A9FFDDF82CE0CDF8F4
:1016000024E0DEF80000DEF80410DEF80820DEF842
:101610000C30DEF810C0DEF81440DEF81850DEF8AA
:101620001C60DEF82070EE46CEF81070CEF80C602C
:10163000CEF80850CEF80440CEF800C003F08EFD7E
:1016400040B1FFE70B99022081F8A90201208DF833
:101650003300D3E00B9800680021089104F0E8FF04
:1016600008988DF82B00FFE79DF82B000B9949682F
:1016700088423CD2FFE70B989DF82B1001EB8101CB
:1016800000EBC101012081F829009DF82B000B9986
:1016900000EB800201EBC20181F828000B989DF855
:1016A0002B1001EB810100EBC101002081F82B0020
:1016B0000B999DF82B2002EB820201EBC20188639B
:1016C0000B999DF82B2002EB820201EBC201C8634B
:1016D0000B999DF82B2002EB820201EBC2010864FA
:1016E000FFE79DF82B0001308DF82B00BCE70020B0
:1016F0008DF82B00FFE79DF82B000B994968884275
:101700003ED2FFE70B989DF82B1001EB810100EB17
:10171000C101002081F869019DF82B100B9A01EBA3
:10172000810302EBC30282F868110B999DF82B200C
:1017300002EB820201EBC20181F86B010B999DF86B
:101740002B2002EB820201EBC201C1F878010B9958
:101750009DF82B2002EB820201EBC201C1F87C0153
:101760000B999DF82B2002EB820201EBC201C1F81C
:101770008001FFE79DF82B0001308DF82B00BAE7C0
:10178000DDF82CE0CDF81CE0DEF80000DEF80410F7
:10179000DEF80820DEF80C30DEF810C0DEF8144069
:1017A000DEF81850DEF81C60DEF82070EE46CEF849
:1017B0001070CEF80C60CEF80850CEF80440CEF889
:1017C00000C003F09FFE40B1FFE70B99022081F8B3
:1017D000A90201208DF8330010E00B99002006903B
:1017E00081F824000B99012081F8A9020B98006868
:1017F00003F082FE06988DF83300FFE79DF8330072
:101800000DB0F0BD80B584B003900398006845F634
:101810000041C4F20001884219D1FFE7FFE741F21D
:101820001C00C4F20200016841F40001016000687C
:1018300000F4000002900298FFE7142001900022BB
:101840001146FEF777FE0198FEF76AFEFFE704B047
:1018500080BD000080B582B0019001208DF80300AA
:1018600001988068022803D0FFE7FEF791FDFFE7AB
:101870000198D0F8EC029DF8031002F099FC019851
:10188000D0F8EC0202F02EFC02B080BD80B582B030
:1018900001900198D0F8EC0202F05EFC02B080BD2D
:1018A00080B582B001900198D0F8EC0202F066FC9D
:1018B00002B080BD80B584B002908DF80710FFE7BC
:1018C000029890F8A802012804D1FFE702208DF8C1
:1018D0000F001AE00299012081F8A802FFE7FFE754
:1018E0009DF80700029981F82400029800689DF88D
:1018F000071004F0A5FEFFE70299002081F8A80276
:10190000FFE700208DF80F00FFE79DF80F0004B0FF
:1019100080BD000080B582B001900199D1F8EC0241
:1019200001F52C7102F06EFC02B080BD80B582B072
:101930000090FFE7009890F8A802012804D1FFE783
:1019400002208DF807001BE00099012081F8A80211
:10195000FFE7FFE70098006804F002FE009801210D
:10196000FEF748FE0098006803F0C0FDFFE700990D
:10197000002081F8A802FFE700208DF80700FFE7AC
:101980009DF8070002B080BD80B582B0019001983B
:10199000D0F8EC0202F0B0FC0198806948B1FFE792
:1019A0004EF61051CEF20001086840F006000860C3
:1019B000FFE702B080BD000080B586B00490002033
:1019C0000390029004980078C007002800F0AC80D3
:1019D000FFE700208DF8070041F21C00C4F202006E
:1019E0000068C000002813D4FFE7FFE741F21C00A5
:1019F000C4F20200016841F080510160006800F00B
:101A0000805000900098FFE701208DF80700FFE765
:101A100047F20000C4F200000068C005002822D48C
:101A2000FFE747F20001C4F20001086840F480704B
:101A30000860FEF7E3FC0390FFE747F20000C4F202
:101A400000000068C00500280CD4FFE7FEF7D6FCB4
:101A50000399401A652804D3FFE703208DF8170087
:101A60008AE0EAE7FFE741F22000C4F202000068E2
:101A700000F4407002900298E0B3FFE702980499E6
:101A8000496801F44071884234D0FFE741F22001F7
:101A9000C4F20201086820F44070029040F2404213
:101AA000C4F24222012010600020106002980860F9
:101AB0009DF80800C007E0B1FFE7FEF79FFC039028
:101AC000FFE741F22000C4F202000068800700280E
:101AD0000ED4FFE7FEF792FC0399401A41F28931D8
:101AE000884204D3FFE703208DF8170044E0E8E7BD
:101AF000FFE7FFE741F22001C4F20201086820F489
:101B00004070049A5268104308609DF8070001284D
:101B100009D1FFE741F21C01C4F20201086820F07C
:101B200080500860FFE7FFE70498007880070028EE
:101B30000CD5FFE741F20401C4F20201086820F469
:101B40004040049A926810430860FFE704980078C8
:101B5000C00600280CD5FFE741F20401C4F20201DF
:101B6000086820F48000049AD26810430860FFE7F8
:101B700000208DF81700FFE79DF8170006B080BD24
:101B800080B584B002900191029820B9FFE701204E
:101B90008DF80F001BE1019842F20001C4F202012E
:101BA000096801F00701884216D9FFE742F20000F8
:101BB000C4F20200016821F00701019A114301609B
:101BC000006800F007000199884204D0FFE7012077
:101BD0008DF80F00FBE0FFE70298007880070028EF
:101BE0002AD5FFE7029800784007002809D5FFE7CB
:101BF00041F20401C4F20201086840F4E0600860A8
:101C0000FFE7029800780007002809D5FFE741F2B6
:101C10000401C4F20201086840F460500860FFE764
:101C200041F20401C4F20201086820F0F000029AB7
:101C3000926810430860FFE702980078C007002808
:101C400060D0FFE70298406801280ED1FFE741F21B
:101C50000000C4F2020000688003002804D4FFE7FB
:101C600001208DF80F00B2E021E0029840680228C0
:101C70000ED1FFE741F20000C4F2020000688001CB
:101C8000002804D4FFE701208DF80F009FE00DE04D
:101C900041F20000C4F2020000688007002804D46A
:101CA000FFE701208DF80F0091E0FFE7FFE741F229
:101CB0000401C4F20201086820F00300029A52688D
:101CC00010430860FEF79AFB0090FFE741F2040022
:101CD000C4F20200006800F00C0002994968B0EB01
:101CE000810F0ED0FFE7FEF789FB0099401A41F201
:101CF0008931884204D3FFE703208DF80F0066E0A6
:101D0000E4E7FFE7019842F20001C4F2020109682A
:101D100001F00701884216D2FFE742F20000C4F248
:101D20000200016821F00701019A11430160006877
:101D300000F007000199884204D0FFE701208DF8E8
:101D40000F0044E0FFE702980078400700280CD518
:101D5000FFE741F20401C4F20201086820F4E060E8
:101D6000029AD26810430860FFE7029800780007E3
:101D700000280DD5FFE741F20401C4F20201086812
:101D800020F46050029A126940EAC2000860FFE73E
:101D900000F022F841F20401C4F202010968C9B25C
:101DA0000A0946F2C471C0F60001895CC84040F2DD
:101DB0001C01C2F20001086040F27410C2F200007F
:101DC0000068FEF743FB00208DF80F00FFE79DF849
:101DD0000F0004B080BD000086B000200590049084
:101DE00003900290019041F20400C4F202000068E6
:101DF0000590059800F00C000146009100283FD0A6
:101E0000FFE70098042804D0FFE70098082806D0D0
:101E100037E041F20020C0F27A00019037E00598E7
:101E2000C0F3834146F2D470C0F60000405C0290DB
:101E30009DF81600C007C0B1FFE741F20400C4F2EC
:101E400002000068C0F3404146F2E470C0F60000B2
:101E5000405C0490029841F20021C0F27A014843AC
:101E60000499B0FBF1F0039007E0029840F60011EE
:101E7000C0F23D0148430390FFE70398019006E05C
:101E8000FFE741F20020C0F27A000190FFE70198DD
:101E900006B0704780B586B00490049820B9FFE77B
:101EA00001208DF817002EE304980078C007002861
:101EB00000F0AE80FFE741F20400C4F202000068C7
:101EC00000F00C00042813D0FFE741F20400C4F234
:101ED0000200006800F00C0008281BD1FFE741F267
:101EE0000400C4F202000068C003002812D5FFE716
:101EF00041F20000C4F2020000688003002808D507
:101F0000FFE70498406820B9FFE701208DF817002B
:101F1000F9E27CE0FFE704984068B0F5803F09D122
:101F2000FFE741F20001C4F20201086840F480308A
:101F3000086032E00498406868B9FFE741F20001A8
:101F4000C4F20201086820F480300860086820F4B8
:101F50008020086020E004984068B0F5A02F0DD1E3
:101F6000FFE741F20001C4F20201086840F480205A
:101F70000860086840F4803008600CE041F200011D
:101F8000C4F20201086820F480300860086820F478
:101F900080200860FFE7FFE7FFE7FFE7049840685D
:101FA000D0B1FFE7FEF72AFA0390FFE741F2000005
:101FB000C4F202000068800300280CD4FFE7FEF79B
:101FC0001DFA0399401A652804D3FFE703208DF812
:101FD000170098E2EAE719E0FEF710FA0390FFE72E
:101FE00041F20000C4F202000068800300280CD512
:101FF000FFE7FEF703FA0399401A652804D3FFE7C9
:1020000003208DF817007EE2EAE7FFE7FFE7FFE72E
:10201000049800788007002840F18D80FFE741F2A6
:102020000400C4F20200006810F00C0F13D0FFE7A8
:1020300041F20400C4F20200006800F00C0008281D
:1020400029D1FFE741F20400C4F202000068C00396
:10205000002820D4FFE741F20000C4F2020000682B
:102060008007002809D5FFE704980069012804D0FB
:10207000FFE701208DF8170045E241F20001C4F2AC
:102080000201086820F0F800049A526940EAC20090
:102090000860FFE74EE00498006958B3FFE70021AD
:1020A000C4F2422101200860FEF7A8F90390FFE77F
:1020B00041F20000C4F202000068800700280CD43E
:1020C000FFE7FEF79BF90399401A032804D3FFE7C3
:1020D00003208DF8170016E2EAE741F20001C4F28E
:1020E0000201086820F0F800049A526940EAC20030
:1020F00008601EE00021C4F2422100200860FEF7C3
:102100007DF90390FFE741F20000C4F2020000688D
:10211000800700280CD5FFE7FEF770F90399401AF5
:10212000032804D3FFE703208DF81700EBE1EAE76B
:10213000FFE7FFE7FFE7049800780007002848D58D
:10214000FFE70498806918B3FFE740F28041C4F2CA
:10215000422101200860FEF751F90390FFE741F2A8
:102160002400C4F202000068800700280CD4FFE7B6
:10217000FEF744F90399401A032804D3FFE703202C
:102180008DF81700BFE1EAE7012000F02BFE1FE009
:1021900040F28041C4F2422100200860FEF72EF98F
:1021A0000390FFE741F22400C4F2020000688007B8
:1021B00000280CD5FFE7FEF721F90399401A032800
:1021C00004D3FFE703208DF817009CE1EAE7FFE75F
:1021D000FFE7049800784007002840F1D880FFE727
:1021E00000208DF8070041F21C00C4F202000068D4
:1021F000C000002813D4FFE7FFE741F21C00C4F23F
:102200000200016841F080510160006800F08050D8
:1022100000900098FFE701208DF80700FFE747F2E4
:102220000000C4F200000068C005002822D4FFE7C7
:1022300047F20001C4F20001086840F480700860B1
:10224000FEF7DCF80390FFE747F20000C4F200005D
:102250000068C00500280CD4FFE7FEF7CFF803990B
:10226000401A652804D3FFE703208DF817004AE1E0
:10227000EAE7FFE7FFE70498C068012809D1FFE714
:1022800041F22001C4F20201086840F00100086038
:1022900031E00498C06868B9FFE741F22001C4F258
:1022A0000201086820F001000860086820F00400BE
:1022B00008601FE00498C06805280DD1FFE741F2CF
:1022C0002001C4F20201086840F0040008600868B8
:1022D00040F0010008600CE041F22001C4F202016C
:1022E000086820F001000860086820F00400086019
:1022F000FFE7FFE7FFE7FFE70498C068E0B1FFE70B
:10230000FEF77CF80390FFE741F22000C4F20200E0
:102310000068800700280ED4FFE7FEF76FF80399E6
:10232000401A41F28931884204D3FFE703208DF837
:102330001700E8E0E8E71BE0FEF760F80390FFE72E
:1023400041F22000C4F202000068800700280ED588
:10235000FFE7FEF753F80399401A41F289318842AA
:1023600004D3FFE703208DF81700CCE0E8E7FFE790
:102370009DF80700012809D1FFE741F21C01C4F2D2
:102380000201086820F080500860FFE7FFE704982A
:10239000C069002800F0B380FFE741F20400C4F2F6
:1023A0000200006800F00C00082800F08280FFE7BF
:1023B0000498C06902285CD1FFE76021C4F2422181
:1023C00000200860FEF71AF80390FFE741F20000D2
:1023D000C4F202000068800100280CD5FFE7FEF778
:1023E0000DF80399401A032804D3FFE703208DF862
:1023F000170088E0EAE70498006AB0F5803F0CD146
:10240000FFE741F20401C4F20201086820F4003041
:10241000049A926810430860FFE741F20401C4F295
:102420000201086820F47410049B1A6A5B6A1A435C
:10243000104308606021C4F2422101200860FDF7CA
:10244000DDFF0390FFE741F20000C4F202000068E4
:10245000800100280CD4FFE7FDF7D0FF0399401A54
:10246000032804D3FFE703208DF817004BE0EAE7C9
:102470001EE06021C4F2422100200860FDF7BEFF8B
:102480000390FFE741F20000C4F2020000688001FF
:1024900000280CD5FFE7FDF7B1FF0399401A032888
:1024A00004D3FFE703208DF817002CE0EAE7FFE7ED
:1024B00024E00498C069012804D1FFE701208DF8C9
:1024C000170020E041F20400C4F20200006802900C
:1024D000029800F480300499096A884208D1FFE725
:1024E000029800F470100499496A884204D0FFE70A
:1024F00001208DF8170006E0FFE7FFE7FFE7002067
:102500008DF81700FFE79DF8170006B080BD0000AA
:1025100080B582B00190019800F084FC02B080BDCB
:10252000FFE7FEE783B0029001918DF803200020C1
:102530008DF80200FFE79DF802009DF80310884225
:1025400029DAFFE70298000F092809D8FFE7029867
:10255000000F303001999DF8022001F8120009E0C7
:102560000299372000EB117001999DF8022001F8C3
:102570001200FFE702980001029001989DF80210F6
:1025800000EB410100204870FFE79DF80200013098
:102590008DF80200CFE703B07047000082B0FFE77C
:1025A00041F21800C4F20200016841F0200101600C
:1025B000006800F0200001900198FFE7FFE741F27A
:1025C0001800C4F20200016841F0040101600068D3
:1025D00000F0040000900098FFE702B07047000090
:1025E00080B540F6FC50C2F2000040F20001C2F299
:1025F0000001002201F0FEFA18B1FFE7FDF7C8FE66
:10260000FFE740F6FC50C2F2000040F22001C2F2A7
:10261000000101F0C5FE18B1FFE7FDF7B9FEFFE7C5
:1026200040F6FC50C2F2000040F24411C2F2000138
:1026300000F026FE18B1FFE7FDF7AAFEFFE740F61F
:10264000FC50C2F2000001F0E1FF18B1FFE7FDF716
:102650009FFEFFE780BD0000FFE7FEE7FFE7FEE724
:1026600088B0079006910592079800F00700049043
:102670000498C0F10700052803D3FFE70420019068
:1026800004E00498C0F107000190FFE7019803906F
:1026900004980430062803D8FFE70020009003E0E8
:1026A000049803380090FFE7009802900698039979
:1026B000012202FA01F101390840029B9840059974
:1026C0009A40013A1140084308B0704780B596B06F
:1026D0001590FFE715980068B0F844000004002842
:1026E00040F17A83FFE715980068B0F84400ADF830
:1026F0004C00BDF84C0000F00F008DF847009DF82D
:102700004700002840F05981FFE7BDF84C00C006A3
:10271000002846D4FFE7FFE715980068008848F6D0
:102720000F710840ADF84400BDF8440040F400408B
:10273000159909680880FFE71598283014901598B6
:102740000068B0F8500014990A7800EBC20215989E
:10275000006800EB4200B0F804046FF39F20C861EA
:1027600014994869CA691044486115980021FDF719
:102770004FFF159890F8240090B1FFE714988069F6
:1027800070B9FFE7159890F8240040F08000159983
:102790000968A1F84C001599002081F82400FFE792
:1027A0000AE1159800F5B470149015980068008837
:1027B000ADF84A00BDF84A00000500282FD5FFE714
:1027C00015980068B0F8500014990A7800EBC2021E
:1027D0001598006800EB4200B0F80C046FF39F20DE
:1027E000C8611599086801F52C71149BDA889B8BD8
:1027F00003F0D8FEFFE715980068008840F68F7157
:102800000840ADF84200BDF8420040F08000159944
:1028100009680880FFE71598FFF77CF8CBE0BDF862
:102820004A000004002840F1C580FFE7FFE7159843
:102830000068008840F68F710840ADF84000BDF890
:10284000400040F08000159909680880FFE715985E
:102850000068B0F8500014990A7800EBC20215988D
:10286000006800EB4200B0F80C046FF39F20C861D1
:102870001498C069B0B1FFE71498406990B1FFE7C0
:1028800015980068149B5969DA889B8B03F08AFEBF
:1028900014994869CA691044486115980021FDF7E8
:1028A000CBFEFFE7159800680088ADF84A00BDF838
:1028B0004A00000500287CD4FFE7BDF84A0000F478
:1028C0004050B0F5405F74D0FFE7FFE7159800680F
:1028D0000F9015980068B0F850100F9808440F90AA
:1028E0000F9800F20C400E90FFE70E9908886FF3E6
:1028F0009F200880149800693F2818D3FFE7FFE75E
:102900001498006940090D901498007CC00620B905
:10291000FFE70D9801380D90FFE70D9A0E99088892
:1029200040EA822040F400400880FFE720E014984D
:10293000006930B9FFE70E99088840F4004008802C
:1029400015E0FFE71498006940080D901498007C8A
:10295000C00720B1FFE70D9801300D90FFE70D9AF9
:102960000E99088840EA82200880FFE7FFE7FFE72A
:10297000FFE7FFE7FFE71598006800884BF68F71C7
:102980000840ADF83200BDF8320080F48050ADF858
:102990003200BDF8320080F40050ADF83200BDF8CE
:1029A000320048F280010843159909680880FFE762
:1029B000FFE7FFE7FFE7FFE70CE2159800689DF8E7
:1029C000471030F82100ADF84A00BDF84A00000475
:1029D000002840F1E180FFE7FFE7159800689DF8C7
:1029E000471030F8210040F68F710840ADF83000F4
:1029F000BDF8300040F08000159909689DF8472027
:102A000021F82200FFE715989DF8471001EB81019E
:102A100000EBC10000F5B47014901498007B08BB63
:102A2000FFE715980068B0F850001499097800EB9A
:102A3000C1011598006800EB4100B0F80C046FF379
:102A40009F20ADF84E00BDF84E0050B1FFE715983D
:102A50000068149A5169D288BDF84E3003F0A2FD87
:102A6000FFE775E01498C078022809D1FFE71598B0
:102A70001499BDF84A20FDF7ABFEADF84E0066E0B4
:102A8000FFE7FFE7159800681499097830F82100EE
:102A900048F68F710840ADF82E00BDF82E0048F2C0
:102AA000C001084315990968149A127821F8220088
:102AB000FFE7FFE7159800681499097830F82100BE
:102AC0004004002821D5FFE715980068B0F85000B1
:102AD0001499097800EBC1011598006800EB4100DA
:102AE000B0F804046FF39F20ADF84E00BDF84E001F
:102AF00050B1FFE715980068149A51691289BDF822
:102B00004E3003F04FFDFFE720E015980068B0F865
:102B100050001499097800EBC1011598006800EB8A
:102B20004100B0F80C046FF39F20ADF84E00BDF8E3
:102B30004E0050B1FFE715980068149A5169528908
:102B4000BDF84E3003F02EFDFFE7FFE7FFE7FFE79C
:102B5000BDF84E201499C8691044C861BDF84E20D4
:102B600014994869104448611498806938B1FFE7A6
:102B7000BDF84E0014990969884206D2FFE71598FE
:102B800014990978FDF758FD05E015980068149927
:102B900002F0DAFDFFE7FFE7BDF84A000006002873
:102BA00040F11781FFE715989DF8471001EB81016F
:102BB00000EBC10028301490FFE7159800689DF8DD
:102BC000471030F8210048F60F710840ADF82C008E
:102BD000BDF82C0040F40040159909689DF8472085
:102BE00021F82200FFE71498C078012840F0A18066
:102BF000FFE71499002088611498007B002800F0FA
:102C00009280FFE7BDF84A004006002846D5FFE75E
:102C1000FFE71498407808BBFFE7FFE715980068C6
:102C20000A9015980068B0F850100A9808440A9065
:102C30000A981499097800EB011000F204400990F9
:102C4000FFE7099908886FF39F2008800999088891
:102C500040F400400880FFE7FFE71DE0149840784B
:102C6000012818D1FFE7FFE715980068079015982D
:102C70000068B0F850100798084407900798149916
:102C8000097800EB011000F204400690069900203C
:102C90000880FFE7FFE7FFE7FFE743E0FFE715985E
:102CA000006805901498407808BBFFE7FFE7159887
:102CB0000068039015980068B0F850100398084415
:102CC000039003981499097800EB011000F20C406E
:102CD0000290FFE7029908886FF39F20088002990D
:102CE000088840F400400880FFE7FFE718E01498E8
:102CF0004078012813D1FFE715980068B0F850100C
:102D000005980844059005981499097800EB01107E
:102D100000F20C400490049900200880FFE7FFE7D0
:102D2000FFE7FFE7FFE7159814990978FDF770FCB6
:102D30004EE0BDF84A00C005002841D4FFE71598D1
:102D40000068B0F850001499097800EBC10115989B
:102D5000006800EB4100B0F804046FF39F20ADF869
:102D6000480014988069BDF84810884207D9FFE7E9
:102D7000BDF8482014998869801A886103E0149985
:102D800000208861FFE71498806930B9FFE7159843
:102D900014990978FDF73CFC11E0BDF8482014991E
:102DA000486910444861BDF848201499C869104426
:102DB000C86115980068149902F0C6FCFFE706E0A8
:102DC00015981499BDF84A20FDF700FEFFE7FFE7CC
:102DD000FFE7FFE7FFF77EBC002016B080BD0000D4
:102DE0007047000082B00190019840F21C01C2F2CD
:102DF00000010968C90844F6D352C1F26202A1FB7E
:102E00000221890948430090FFE700BFFFE70098CF
:102E1000411E00910028F8D1FFE702B07047000082
:102E20007047000080B582B0009000980138B0F182
:102E3000807F03D3FFE70120019019E0009801385B
:102E40004EF21401CEF2000108604FF0FF300F2166
:102E500003F06AFC4EF21801CEF200010020086077
:102E60004EF21002CEF20002072111600190FFE73E
:102E7000019802B080BD000080B5FDF7C5FA80BDA5
:102E800080B596B00CA801902821FDF7BDF90198F6
:102E9000002302930B930A930993089307930693D5
:102EA00005930493039301220C924FF480310D910A
:102EB0000E9310920222139214914FF4E011159187
:102EC000FEF7E8FF18B1FFE7FDF762FAFFE70F2012
:102ED000079002210891002009904FF480620A9225
:102EE0000B9007A8FEF74CFE18B1FFE7FDF750FA6C
:102EF000FFE7102003900020069003A8FEF75CFD7A
:102F000018B1FFE7FDF744FAFFE716B080BD0000F7
:102F10007047000080B586B004908DF80F100498BB
:102F2000D0F8B80202900498D0F8C002019004983A
:102F3000D0F8B802A8B3FFE704989DF80F1001EB92
:102F4000810100EB8100C06910B3FFE704989DF890
:102F50000F1001EB810100EB8100C269019800EBC9
:102F6000C100816BB2FBF1F000FB112080B9FFE7DB
:102F700004989DF80F1001EB810100EB8100002304
:102F8000C36104989DF80F101A4601F0C3F904E0DC
:102F900002990020C1F81402FFE700208DF8170005
:102FA00003E002208DF81700FFE79DF8170006B038
:102FB00080BD000080B584B002908DF807100298A3
:102FC000D0F8B802009002989DF8071000F0B4FF06
:102FD0000099C1F80C020298D0F8B80270B1FFE76E
:102FE0000298D0F8BC02C2680099D1F8040201F539
:102FF0000371904700208DF80F0003E002208DF848
:103000000F00FFE79DF80F0004B080BD80B584B0CD
:1030100003908DF80B10002001908DF80A000398A2
:10302000812100F037FE01980399C86203980121BD
:1030300000F030FE01980399C1F86C0103988221D9
:1030400000F028FE0198039908640398D0F8B802AC
:1030500078B1FFE70398D0F8BC0240688047039836
:10306000D0F8B80201F022FD03990020C1F8B8029F
:10307000FFE79DF80A0004B080BD000080B582B073
:1030800001900198D0F8B80200900198D0F8BC02E5
:10309000A8B1FFE7009890F80002FF280FD0FFE7E3
:1030A0000198D0F8BC028368009991F8000291F869
:1030B000012298470099FF2081F80002FFE70020D5
:1030C00002B080BD81B0009000990A20088040F2D3
:1030D000E000C2F2000001B07047000081B0009033
:1030E00000994320088040F25800C2F2000001B06D
:1030F0007047000081B0009000994320088040F2A2
:103100009C00C2F2000001B07047000081B0009046
:1031100000994320088040F2EC00C2F2000001B0A8
:103120007047000080B58AB009908DF82310002008
:103130008DF822000998007CB8B9FFE70998812131
:10314000022204924FF40073059300F081FF049A69
:10315000059B099801210691C162099800F078FF4A
:1031600006980999C1F86C0115E00998812102229D
:1031700001924023029300F06BFF019A029B099891
:1031800001210391C162099800F062FF0398099937
:10319000C1F86C01FFE7099882210322082300F09F
:1031A00057FF0999012008644FF4077001F082FC71
:1031B0000999C1F8B8020998D0F8B80220B9FFE718
:1031C00001208DF8220027E00998D0F8B802079076
:1031D0000998D0F8BC020068804707990020C1F820
:1031E00014020799C1F818020998007C50B9FFE74A
:1031F00009980799D1F8042201214FF4007300F0D7
:103200004DFF08E009980799D1F8042201214023D5
:1032100000F044FFFFE7FFE79DF822000AB080BD01
:1032200080B584B002900298D0F8B802019002985C
:10323000D0F8B802D8B1FFE70298007C50B9FFE798
:1032400002980199D1F8042201214FF4007300F093
:1032500025FF08E002980199D1F8042201214023BA
:1032600000F01CFFFFE700208DF80F0003E00220B4
:103270008DF80F00FFE79DF80F0004B080BD00003F
:1032800083B00290019102208DF80300019840B1B3
:10329000FFE701980299C1F8BC0200208DF80300F5
:1032A000FFE79DF8030003B07047000083B0029071
:1032B00001910298D0F8B802009001980099C1F8E5
:1032C0000402002003B0704784B003900291ADF86F
:1032D00006200398D0F8B802009002980099C1F82F
:1032E0000802BDF806000099C1F81002002004B0E1
:1032F0007047000080B588B0079006910798D0F815
:10330000B802059000208DF81300ADF810008DF87C
:103310000F000698007800F0600001460291D8B3D3
:10332000FFE70298202840F08880FFE70698C088D1
:1033300040B3FFE7069800780006002810D5FFE7A5
:103340000798D0F8BC028368069A50780599D2880D
:10335000984707980599069AD28800F00FF910E06F
:1033600006984078059981F80002069880790599B9
:1033700081F8010207980599069AD28800F0CCF8E6
:10338000FFE708E00798D0F8BC0283680699487800
:1033900000229847FFE758E00698407801460191DF
:1033A00040B1FFE701980A2819D0FFE701980B28E0
:1033B0002BD039E0079890F89C02032806D1FFE74C
:1033C000079804A9022200F0D9F807E007980699A7
:1033D00000F094F802208DF80F00FFE72CE007982A
:1033E00090F89C02032807D1FFE707980DF113011D
:1033F000012200F0C3F807E00798069900F07EF874
:1034000002208DF80F00FFE716E0079890F89C0265
:10341000032808D0FFE70798069900F06FF802200C
:103420008DF80F00FFE707E00798069900F066F8AF
:1034300002208DF80F00FFE707E00798069900F0DB
:103440005DF802208DF80F00FFE79DF80F0008B02F
:1034500080BD000080B582B001908DF80310019806
:10346000D0F8B4124A689DF803109047002002B0CB
:1034700080BD000080B582B001900091019890F865
:103480009C02013802280ED8FFE7009840880128E6
:1034900008D1FFE701990020C1F8A402019800F0CB
:1034A0008BF8FFE704E00198009900F027F8FFE7A8
:1034B00002B080BD80B584B003900291ADF80620C3
:1034C0000398029ABDF806300021009100F0E6FD55
:1034D000009804B080BD000080B584B003900291D4
:1034E000ADF806200398029ABDF80630002100913D
:1034F00000F010FF009804B080BD000080B582B0DD
:10350000019000910198802100F0BEFE01980021F9
:1035100000F0BAFE02B080BD80B584B00390029185
:10352000ADF8062003990320C1F89402BDF8060007
:103530000399C1F85C01BDF806000399C1F8600168
:103540000398029ABDF806300021009100F0A6FD14
:10355000009804B080BD000080B582B00190019950
:103560000520C1F8940201980023009319461A46D9
:1035700000F094FD009802B080BD000080B584B0DA
:1035800003900291ADF8062003990220C1F894023D
:10359000BDF806000399C861BDF8060003990862EA
:1035A0000398029ABDF806300021009100F0B2FEA7
:1035B000009804B080BD000080B582B001900199F0
:1035C0000420C1F8940201980023009319461A467A
:1035D00000F0A0FE009802B080BD000080B582B06F
:1035E0008DF8070000919DF8070060B9FFE7009A89
:1035F00046F2F470C0F6000040F2DC11C2F20001A5
:1036000000F08CFA0BE0009A46F2F470C0F600006D
:1036100040F2DC11C2F2000100F080FAFFE740F254
:10362000DC10C2F2000002B080BD000082B08DF854
:103630000700009100991220088040F23010C2F279
:10364000000002B07047000080B582B08DF807001E
:1036500000919DF8070060B9FFE7009A46F2E67016
:10366000C0F6000040F2DC11C2F2000100F056FA90
:103670000BE0009A46F2E670C0F6000040F2DC1162
:10368000C2F2000100F04AFAFFE740F2DC10C2F299
:10369000000002B080BD000082B08DF807000091EC
:1036A00000990420088040F25410C2F2000002B0D9
:1036B0007047000080B584B08DF80F000291029A27
:1036C00046F2FF70C0F6000040F2DC11C2F20001C9
:1036D000019100F023FA019804B080BD80B582B05A
:1036E0008DF8070000919DF8070060B9FFE7009A88
:1036F00046F61200C0F6000040F2DC11C2F20001F2
:1037000000F00CFA0BE0009A46F61200C0F600003A
:1037100040F2DC11C2F2000100F000FAFFE740F2D3
:10372000DC10C2F2000002B080BD000080B582B0A3
:103730008DF80700009100991A200880FCF730FEF0
:1037400040F25810C2F2000002B080BD80B584B0D3
:10375000039002910298C088012805D0FFE70398E2
:103760000299FFF7CBFE21E0039890F89C12481EC7
:103770000191022804D3FFE7019803280AD00FE043
:10378000039900208860039800F108010122FFF7E7
:10379000F5FE0AE00398011D0122FFF7EFFE04E0A9
:1037A00003980299FFF7AAFEFFE7FFE704B080BD88
:1037B00080B588B0079006910020ADF816000490FF
:1037C0008DF80F000698C07801380146029106284E
:1037D00000F21E810299DFE811F0070011002E00AF
:1037E0001B011B01E80000010798D0F8B0120A681D
:1037F000007C0DF116019047049013E10798007CBE
:1038000060B9FFE70798D0F8B402816A0DF116009D
:10381000884704900499022048700BE00798D0F87C
:10382000B402C16A0DF11600884704900499022081
:103830004870FFE7F6E00698807801460191052878
:1038400000F2A8800199DFE801F0031E39546F8A65
:103850000798D0F8B002406850B1FFE70798D0F859
:10386000B0124A68007C0DF116019047049009E0FF
:1038700007980699FFF742FE9DF80F0001308DF87A
:103880000F00FFE790E00798D0F8B002806850B1D1
:10389000FFE70798D0F8B0128A68007C0DF1160196
:1038A0009047049009E007980699FFF727FE9DF8D6
:1038B0000F0001308DF80F00FFE775E00798D0F892
:1038C000B002C06850B1FFE70798D0F8B012CA68DC
:1038D000007C0DF116019047049009E007980699C5
:1038E000FFF70CFE9DF80F0001308DF80F00FFE789
:1038F0005AE00798D0F8B002006950B1FFE7079886
:10390000D0F8B0120A69007C0DF1160190470490BE
:1039100009E007980699FFF7F1FD9DF80F000130C7
:103920008DF80F00FFE73FE00798D0F8B00240693C
:1039300050B1FFE70798D0F8B0124A69007C0DF14A
:1039400016019047049009E007980699FFF7D6FD05
:103950009DF80F0001308DF80F00FFE724E0079875
:10396000D0F8B002806950B1FFE70798D0F8B012E4
:103970008A69007C0DF116019047049009E00798D0
:103980000699FFF7BBFD9DF80F0001308DF80F0081
:10399000FFE709E007980699FFF7B0FD9DF80F00D3
:1039A00001308DF80F00FFE73CE00798007C48B934
:1039B000FFE70798D0F8B402416B0DF11600884775
:1039C000049009E007980699FFF798FD9DF80F000D
:1039D00001308DF80F00FFE724E00798007C60B904
:1039E000FFE70798D0F8B402016B0DF11600884785
:1039F000049004990720487009E007980699FFF79A
:103A00007DFD9DF80F0001308DF80F00FFE709E004
:103A100007980699FFF772FD9DF80F0001308DF8A9
:103A20000F00FFE79DF80F0008B1FFE729E0BDF8A0
:103A30001600E8B1FFE70698C088C8B1FFE7BDF8F7
:103A400016000699C988884204DAFFE7BDF8160017
:103A5000009003E00698C0880090FFE70098ADF85A
:103A6000160007980499BDF81620FFF787FDFFE7B9
:103A70000698C08820B9FFE70798FFF79DFDFFE78C
:103A8000FFE708B080BD000082B0019000208DF8F3
:103A90000300FFE70198007848B1FFE79DF80300B5
:103AA00001308DF80300019801300190F2E79DF894
:103AB000030002B07047000080B582B00190009111
:103AC000019890F89C02013802281FD8FFE700985F
:103AD000C088022805D0FFE701980099FFF70EFD86
:103AE00019E001990120C8600198D0F8A40230B112
:103AF000FFE70199C86840F00200C860FFE701983D
:103B000000F10C010222FFF739FD04E00198009951
:103B1000FFF7F4FCFFE702B080BD000080B584B081
:103B200003900291019200208DF803000398A0B346
:103B3000FFE70398FFF7A8FF0146022000EB4100D2
:103B4000019908800198007802999DF80320531C80
:103B50008DF80330885402999DF80320501C8DF88D
:103B6000030003208854FFE703980078A0B1FFE723
:103B70000398411C0391007802999DF80320531C7F
:103B80008DF80330885402999DF80320501C8DF85D
:103B9000030000208854E7E7FFE704B080BD000081
:103BA00082B08DF8070000208DF806009DF8070010
:103BB00001460091032814D80099DFE801F00206BD
:103BC0000A0E00208DF806000FE002208DF8060096
:103BD0000BE001208DF8060007E002208DF80600BA
:103BE00003E002208DF80600FFE79DF8060002B012
:103BF0007047000080B584B0029001918DF80320D9
:103C0000029820B9FFE702208DF80F0020E002980B
:103C1000D0F8B40228B1FFE702990020C1F8B4023D
:103C2000FFE7019828B1FFE701980299C1F8B002B7
:103C3000FFE70299012081F89C029DF80300029998
:103C40000870029800F086F900208DF80F00FFE759
:103C50009DF80F0004B080BD80B582B001908DF852
:103C6000031000208DF802008DF801000198D0F8B3
:103C7000C0029DF80310FCF747FD8DF802009DF887
:103C80000200FFF78DFF8DF801009DF8010002B0E2
:103C900080BD000080B582B001908DF80310002037
:103CA0008DF802008DF801000198D0F8C0029DF84F
:103CB0000310FCF7D5FC8DF802009DF80200FFF719
:103CC0006FFF8DF801009DF8010002B080BD00007B
:103CD00080B586B004908DF80F1002929DF80F0009
:103CE000002840F08580FFE7049814300190049884
:103CF000D0F8940202285BD1FFE70199C8680969EE
:103D0000884212D9FFE70199C8680A69801AC86019
:103D100004980299019A9289FFF7DEFB0498002328
:103D200019461A4600F0BAF941E001988268016923
:103D3000B2FBF1F000FB1120F0B9FFE701998868B0
:103D40000969884218D3FFE7019880680499D1F87F
:103D50009812884210D2FFE7049800220092114680
:103D6000FFF7BAFB009B0498C0F8983204981946F4
:103D70001A4600F093F919E00498D0F8B402C0682C
:103D800060B1FFE7049890F89C02032806D1FFE792
:103D90000498D0F8B412C9688847FFE704988021D6
:103DA00000F072FA0498FFF7D7FBFFE7FFE710E097
:103DB0000498D0F89402042805D0FFE70498D0F8BE
:103DC000940228B9FFE70498802100F05DFAFFE72C
:103DD000FFE7049890F8A002012808D1FFE70498B3
:103DE00000F0F8FA0499002081F8A002FFE718E03B
:103DF0000498D0F8B402406970B1FFE7049890F8D5
:103E00009C02032808D1FFE70498D0F8B4124A694D
:103E10009DF80F10904703E002208DF8170004E092
:103E2000FFE700208DF81700FFE79DF8170006B0A8
:103E300080BD000080B588B006908DF81710049200
:103E40009DF81700002855D1FFE7069800F5AA70E5
:103E500003900698D0F8940203283BD1FFE703991A
:103E6000C868096988421ED9FFE70399C8680A69CA
:103E7000801AC86006980190049802900399C86857
:103E80000969884204D2FFE70398C068009003E004
:103E9000039800690090FFE702990198009A92B296
:103EA000FFF708FB15E00698D0F8B402006960B18E
:103EB000FFE7069890F89C02032806D1FFE70698D2
:103EC000D0F8B41209698847FFE70698FFF774FB3A
:103ED000FFE70EE00698D0F89402052808D1FFE726
:103EE00006980021C0F89412069800F0CDF9FFE77B
:103EF000FFE718E00698D0F8B402806970B1FFE7D8
:103F0000069890F89C02032808D1FFE70698D0F89D
:103F1000B4128A699DF81710904703E002208DF8CB
:103F20001F0004E0FFE700208DF81F00FFE79DF869
:103F30001F0008B080BD000080B582B001908DF8F0
:103F400003100198D0F8C0029DF80310FDF7E4F8C3
:103F500002B080BD80B584B00390039941F2C000E7
:103F6000C2F200000290C0F8EC120399C1F8C0023E
:103F700045F60041C4F200010160082141600221C0
:103F8000816000218161C1610162FDF717FB18B1F9
:103F9000FFE7FCF7FDF9FFE70398D0F8C002002225
:103FA000019218231146FCF7E7FA019A0398D0F81A
:103FB000C00280215823FCF7DFFA019A0398D0F859
:103FC000C0028121C023FCF7D7FA019A0398D0F8E8
:103FD000C00201214FF48873FCF7CEFA019A0398CE
:103FE000D0F8C00282214FF48073FCF7C5FA019823
:103FF00004B080BD84B002908DF807100298D0F80C
:10400000C00200909DF80700000600280ED5FFE7CB
:1040100000989DF8071001F07F0101EB810100EB92
:10402000C10090F82A008DF80F000DE000989DF86F
:10403000071001F07F0101EB810100EBC10090F856
:104040006A018DF80F00FFE79DF80F0004B070477C
:1040500080B584B003908DF80B108DF80A20ADF870
:10406000083000208DF807008DF806000398D0F87E
:10407000C0029DF80B10BDF808209DF80A30FDF72E
:104080005DF88DF807009DF80700FFF789FD8DF8B2
:1040900006009DF8060004B080BD000080B584B025
:1040A00003908DF80B100192ADF8023000208DF8CE
:1040B00001008DF800000398D0F8C0029DF80B10A5
:1040C000019ABDF80230FDF7A7F88DF801009DF8C0
:1040D0000100FFF765FD8DF800009DF8000004B0B9
:1040E00080BD000080B584B0039003980022029246
:1040F000402300931146FFF7ABFF009B029A039900
:1041000001200190C1F858010398C0F86431039868
:104110008021FFF79DFF009A01990298039B996106
:10412000039B5A62039A82F89C120399C1F8940285
:10413000039948600399C1F8A4020398D0F8B80223
:1041400038B1FFE70398D0F8B4124A680179904774
:10415000FFE7002004B080BD81B00090009890F887
:104160009C02042806D1FFE7009991F89D0281F88E
:104170009C02FFE7002001B07047000080B582B0CC
:104180000190019890F89C0203280DD1FFE7019857
:10419000D0F8B402C06930B1FFE70198D0F8B4128A
:1041A000C9698847FFE7FFE7002002B080BD000033
:1041B00082B001908DF803109DF8030001990874F6
:1041C000002002B07047000080B582B001908DF8E9
:1041D000031000208DF802008DF801000198D0F83E
:1041E000C0029DF80310FDF765FB8DF802009DF8F5
:1041F0000200FFF7D5FC8DF801009DF8010002B028
:1042000080BD000080B584B003900291039800F552
:104210002A70029900F0A2F803990120C1F89402D3
:104220000399B1F8AE02C1F89802039890F8A80279
:1042300000F01F000146019140B1FFE701980128FD
:104240000AD0FFE7019802280CD011E0039800F58E
:104250002A7100F0E5F913E0039800F52A7100F0E7
:10426000D9FB0DE0039800F52A7100F037FA07E05A
:10427000039890F8A81201F0800100F005F8FFE71C
:10428000002004B080BD000080B582B001908DF8A0
:10429000031000208DF802008DF801000198D0F87D
:1042A000C0029DF80310FCF7E5FF8DF802009DF8B1
:1042B0000200FFF775FC8DF801009DF8010002B0C7
:1042C00080BD000080B582B0019000208DF8030011
:1042D0008DF802000198D0F8C002FDF727FB8DF899
:1042E00003009DF80300FFF75BFC8DF802009DF8CA
:1042F000020002B080BD000081B00090009991F8EA
:104300009C0281F89D020099042081F89C02002003
:1043100001B0704780B584B003908DF80B10019206
:10432000ADF8023000208DF801008DF800000398F0
:10433000D0F8C0029DF80B10019ABDF80230FDF7CD
:1043400007F88DF801009DF80100FFF729FC8DF8B2
:1043500000009DF8000004B080BD000082B0019014
:1043600000910098007801990870009840780199B0
:10437000487000998878C97840EA012001994880FE
:1043800000990879497940EA0120019988800099CB
:104390008879C97940EA01200199C88002B0704744
:1043A00083B00290019100208DF80300019840B184
:1043B000FFE701980299C1F8B40200208DF80300CC
:1043C00003E002208DF80300FFE79DF8030003B02F
:1043D0007047000081B00090002001B070470000DD
:1043E00080B584B00390029102988088B8BBFFE743
:1043F0000298C08898BBFFE7029840887F282ED893
:10440000FFE70298807800F07F008DF8070003989E
:1044100090F89C02032805D1FFE703980299FFF763
:104420006DF81BE09DF80700039981F89E02039840
:104430009DF80710FFF7C8FE0398FFF7BDF89DF839
:10444000070028B1FFE70399022081F89C0204E0ED
:104450000399012081F89C02FFE7FFE704E003983D
:104460000299FFF74BF8FFE704B080BD80B582B03A
:1044700001908DF8031002208DF802000198D0F809
:10448000B40270B1FFE70198D0F8B4120A689DF841
:104490000310904720B9FFE700208DF80200FFE7E6
:1044A000FFE79DF8020002B080BD000080B584B037
:1044B000039002910298817840F2D810C2F2000075
:1044C00001700078022805DBFFE703980299FFF7E7
:1044D00015F885E0039890F89C02014601910228A6
:1044E00004D0FFE70198032827D06BE040F2D810F2
:1044F000C2F200000078D8B1FFE740F2D811C2F252
:1045000000010878039A5060039A032082F89C0205
:1045100003980978FFF7AAFF022805D1FFE703985F
:104520000299FEF7EBFF5BE00398FFF745F803E025
:104530000398FFF741F8FFE751E040F2D810C2F2CC
:104540000000007898B9FFE70399022081F89C02E7
:1045500040F2D811C2F200010878039A5060039823
:104560000978FEF777FF0398FFF726F829E040F275
:10457000D810C2F2000000780399496888421BD025
:10458000FFE703980179FEF765FF40F2D811C2F208
:1045900000010878039A506003980978FFF766FFD6
:1045A000022805D1FFE703980299FEF7A7FF17E05D
:1045B0000398FFF701F803E00398FEF7FDFFFFE71C
:1045C000FFE70CE003980299FEF798FF039840F28A
:1045D000D811C2F200010978FEF73CFFFFE7FFE7C0
:1045E00004B080BD80B582B00190009100984088F1
:1045F000012808D1FFE701990120C1F8A402019820
:10460000FEF7DAFFFFE702B080BD000080B582B0A0
:1046100001900198FFF756FE002002B080BD000017
:1046200080B586B00590049100208DF80F000498A5
:10463000007800F060000146029178B1FFE702982F
:10464000202804D0FFE7029840283ED1FFE70598D4
:10465000D0F8B4128A68049990473BE004984078F7
:104660000146019109282AD80199DFE801F01923B0
:10467000281E280A0528140F05980499FFF798F8B2
:1046800022E005980499FFF7ABFE1DE00598049918
:10469000FFF70CFF18E005980499FFF757F813E0AF
:1046A00005980499FFF708FA0EE005980499FFF7BA
:1046B00099FF09E005980499FEF7DCFE04E00598EF
:1046C0000499FEF71BFFFFE704E005980499FEF745
:1046D00015FFFFE79DF80F0006B080BD80B58CB0D8
:1046E0000A90099100208DF81E00099880888DF8A5
:1046F0001F000998007800F060000146069180B123
:10470000FFE70698202805D0FFE70698402840F0EC
:104710007281FFE70A98D0F8B4128A680999904725
:104720006EE10998007800F0600020280DD1FFE7C5
:104730000A98D0F8B4128A68099990478DF81E003B
:104740009DF81E008DF82F005FE109984078014622
:104750000591002800F09080FFE7059801284CD0D3
:10476000FFE70598032840F04081FFE70A9890F89A
:104770009C0201460491022804D0FFE70498032814
:1047800019D034E09DF81F0078B1FFE79DF81F00B5
:1047900080280AD0FFE70A989DF81F10FFF774FDE4
:1047A0000A988021FFF770FD04E00A980999FEF746
:1047B000A5FEFFE720E009984088A0B9FFE79DF833
:1047C0001F0078B1FFE79DF81F0080280AD0FFE79F
:1047D0000998C08830B9FFE70A989DF81F10FFF7C5
:1047E00053FDFFE7FFE70A98FEF7E6FE04E00A98AC
:1047F0000999FEF783FEFFE7FCE00A9890F89C0217
:1048000001460391022804D0FFE70398032819D03A
:104810002CE09DF81F0078B1FFE79DF81F0080286D
:104820000AD0FFE70A989DF81F10FFF72DFD0A98A0
:104830008021FFF729FD04E00A980999FEF75EFE42
:10484000FFE718E00998408878B9FFE79DF81F0056
:10485000400630B1FFE70A989DF81F10FFF7FCF9FA
:10486000FFE70A98FEF7A8FEFFE704E00A98099917
:10487000FEF744FEFFE7BDE00A9890F89C0201466F
:104880000291022804D0FFE70298032838D0A6E05E
:104890009DF81F0050B1FFE79DF81F00802805D04C
:1048A000FFE70A980999FEF729FE9DE09DF81F0091
:1048B000000600280CD5FFE70A989DF81F1001F0AC
:1048C0007F0101EB810100EB8100143001900CE0CD
:1048D0000A989DF81F1001F07F0101EB810100EBA8
:1048E000810000F5AA700190FFE7019808900899EF
:1048F000002008600A9808990222FEF73FFE73E044
:104900009DF81F000006002812D5FFE70A989DF8C1
:104910001F1001F00F0101EB810100EB81008069A4
:1049200028B9FFE70A980999FEF7E8FD5CE012E074
:104930000A989DF81F1001F00F0101EB810100EBB7
:104940008100D0F8580128B9FFE70A980999FEF7C5
:10495000D5FD49E0FFE79DF81F00000600280CD5B3
:10496000FFE70A989DF81F1001F07F0101EB81011C
:1049700000EB8100143000900CE00A989DF81F10A5
:1049800001F07F0101EB810100EB810000F5AA70CD
:104990000090FFE7009808909DF81F0028B1FFE7FE
:1049A0009DF81F00802804D1FFE7089900200860C7
:1049B0000FE00A989DF81F10FFF71CFB20B1FFE7DE
:1049C00008990120086003E0089900200860FFE7CB
:1049D000FFE70A9808990222FEF7D0FD04E00A9842
:1049E0000999FEF78BFDFFE704E00A980999FEF7A5
:1049F00085FDFFE704E00A980999FEF77FFDFFE7D0
:104A00009DF81E008DF82F00FFE79DF82F000CB0D9
:104A100080BD000080B584B00390029100208DF825
:104A200007000298007800F060000146009140B154
:104A3000FFE70098202804D0FFE7009840282DD1F8
:104A4000FFE7039890F89C020138022820D8FFE77E
:104A500002980079012815DCFFE70398D0F8B4121A
:104A60008A68029990478DF807000298C08840B97B
:104A7000FFE79DF8070020B9FFE70398FEF79CFDCC
:104A8000FFE704E003980299FEF738FDFFE704E032
:104A900003980299FEF732FDFFE704E003980299BC
:104AA000FEF72CFDFFE7002004B080BD81B0009030
:104AB00001B0704781B0009040F2DC30C2F20000DB
:104AC00001B070479CB01B901A9100208DF86700D0
:104AD0001B981A99097830F8210048F68F11084080
:104AE000ADF864001A98C0780146009103281AD8DE
:104AF0000099DFE801F00211090ABDF8640040F4F2
:104B00000070ADF8640012E011E0BDF8640040F4FC
:104B1000C060ADF864000AE0BDF8640040F4806055
:104B2000ADF8640003E001208DF86700FFE7BDF8F1
:104B3000640048F2800108431B991A9A127821F800
:104B40002200FFE71B981A99097830F8210048F6EF
:104B50008F7108401A9909780843ADF86200BDF8D2
:104B6000620048F2800108431B991A9A127821F8D2
:104B70002200FFE71A98007B002840F05981FFE7E8
:104B80001A984078002878D0FFE7FFE71B98169026
:104B90001B98B0F8501016980844169016981A9959
:104BA000097800EB011000F5806017901A98C08812
:104BB00020F0010017990880FFE7FFE71B981A997A
:104BC000097830F82100ADF85600BDF856004006CF
:104BD000002817D5FFE7FFE71B981A99097830F8E6
:104BE000210048F68F710840ADF85400BDF854001C
:104BF00048F2C00108431B991A9A127821F8220042
:104C0000FFE7FFE7FFE71A98C07801281DD0FFE70C
:104C1000FFE71B981A99097830F8210048F6BF7110
:104C20000840ADF85200BDF8520080F02000ADF809
:104C30005200BDF8520048F2800108431B991A9AAD
:104C4000127821F82200FFE716E0FFE71B981A9977
:104C5000097830F8210048F6BF710840ADF85000DF
:104C6000BDF8500048F2800108431B991A9A127847
:104C700021F82200FFE7FFE7D9E0FFE71B98129039
:104C80001B98B0F8501012980844129012981A9974
:104C9000097800EB011000F5816013901A98C08824
:104CA00020F0010013990880FFE7FFE71B9811909F
:104CB0001B98B0F8501011980844119011981A9947
:104CC000097800EB011000F20C401090FFE71099FA
:104CD00008886FF39F2008801A9800693F2818D32E
:104CE000FFE7FFE71A98006940090F901A98007CC7
:104CF000C00620B9FFE70F9801380F90FFE70F9A21
:104D00001099088840EA822040F400400880FFE7BC
:104D100020E01A98006930B9FFE71099088840F43C
:104D20000040088015E0FFE71A98006940080F90DE
:104D30001A98007CC00720B1FFE70F9801300F9050
:104D4000FFE70F9A1099088840EA82200880FFE761
:104D5000FFE7FFE7FFE7FFE7FFE71B981A990978EE
:104D600030F82100ADF83A00BDF83A0040040028C0
:104D700017D5FFE7FFE71B981A99097830F821004B
:104D800048F68F710840ADF83800BDF838004CF295
:104D9000800108431B991A9A127821F82200FFE734
:104DA000FFE7FFE71A98007818BBFFE7FFE71B98BB
:104DB0001A99097830F821004BF68F710840ADF848
:104DC0003600BDF8360080F48050ADF83600BDF8EE
:104DD000360080F40050ADF83600BDF8360048F2D9
:104DE000800108431B991A9A127821F82200FFE7E4
:104DF0001CE0FFE71B981A99097830F821004BF660
:104E00008F710840ADF83400BDF8340080F40050D4
:104E1000ADF83400BDF8340048F2800108431B9916
:104E20001A9A127821F82200FFE7FFE7FFE790E1E6
:104E30001A98C078022817D1FFE7FFE71B981A9944
:104E4000097830F8210048F68F710840ADF832003B
:104E5000BDF8320048F2801108431B991A9A127863
:104E600021F82200FFE716E0FFE71B981A9909785E
:104E700030F8210048F68F610840ADF83000BDF8E9
:104E8000300048F2800108431B991A9A127821F8E1
:104E90002200FFE7FFE7FFE7FFE7FFE71B980A9025
:104EA0001B98B0F850100A9808440A900A981A996A
:104EB000097800EB011000F580600B901A980089CA
:104EC00020F001000B990880FFE7FFE7FFE7FFE70D
:104ED0001B9808901B98B0F8501008980844089048
:104EE00008981A99097800EB011000F58160099083
:104EF0001A98408920F0010009990880FFE7FFE730
:104F0000FFE71A984078002840F08680FFE7FFE727
:104F10001B981A99097830F82100ADF81E00BDF8E9
:104F20001E004004002817D5FFE7FFE71B981A99D9
:104F3000097830F8210048F68F710840ADF81C0060
:104F4000BDF81C004CF2800108431B991A9A127894
:104F500021F82200FFE7FFE7FFE7FFE71B981A9918
:104F6000097830F82100ADF81A00BDF81A004006A3
:104F7000002817D5FFE7FFE71B981A99097830F842
:104F8000210048F68F710840ADF81800BDF81800F0
:104F900048F2C00108431B991A9A127821F822009E
:104FA000FFE7FFE7FFE7FFE71B981A99097830F85A
:104FB00021004BF68F710840ADF81600BDF81600C1
:104FC00080F48050ADF81600BDF8160080F4005053
:104FD000ADF81600BDF8160048F2800108431B9991
:104FE0001A9A127821F82200FFE7FFE71B981A9916
:104FF000097830F8210048F6BF710840ADF8140078
:10500000BDF8140048F2800108431B991A9A1278DF
:1050100021F82200FFE79BE0FFE71B981A99097827
:1050200030F82100ADF81200BDF81200400400284D
:1050300017D5FFE7FFE71B981A99097830F8210088
:1050400048F68F710840ADF81000BDF810004CF222
:10505000800108431B991A9A127821F82200FFE771
:10506000FFE7FFE7FFE71B981A99097830F821005E
:10507000ADF80E00BDF80E004006002817D5FFE77A
:10508000FFE71B981A99097830F8210048F68F71CC
:105090000840ADF80C00BDF80C0048F2C001084310
:1050A0001B991A9A127821F82200FFE7FFE7FFE721
:1050B0001A98C07801281DD0FFE7FFE71B981A99BE
:1050C000097830F8210048F6BF710840ADF80A00B1
:1050D000BDF80A0080F02000ADF80A00BDF80A0013
:1050E00048F2800108431B991A9A127821F822008D
:1050F000FFE716E0FFE71B981A99097830F82100BE
:1051000048F6BF710840ADF80800BDF8080048F245
:10511000800108431B991A9A127821F82200FFE7B0
:10512000FFE7FFE71B981A99097830F821004BF642
:105130008F710840ADF80600BDF8060048F2800106
:1051400008431B991A9A127821F82200FFE7FFE71B
:10515000FFE79DF867001CB070470000F0B589B00C
:10516000129E119D109CDDF83CE0DDF838C00896D9
:1051700007950694CDF814E0CDF810C00393029281
:1051800001910090002009B0F0BD00008CB00B90A0
:105190000A910A98007B002840F08080FFE70A9877
:1051A0004078E8B3FFE7FFE70B980A99097830F8F1
:1051B0002100ADF82600BDF826004006002817D5CE
:1051C000FFE7FFE70B980A99097830F8210048F6C5
:1051D0008F710840ADF82400BDF8240048F2C001EA
:1051E00008430B990A9A127821F82200FFE7FFE79B
:1051F000FFE7FFE70B980A99097830F8210048F695
:10520000BF710840ADF82200BDF8220048F28001CD
:1052100008430B990A9A127821F82200FFE73CE034
:10522000FFE70B980A99097830F82100ADF82000C3
:10523000BDF820004004002817D5FFE7FFE70B98D2
:105240000A99097830F8210048F68F710840ADF8C6
:105250001E00BDF81E004CF2800108430B990A9A0B
:10526000127821F82200FFE7FFE7FFE7FFE70B983E
:105270000A99097830F821004BF68F710840ADF893
:105280001C00BDF81C0048F2800108430B990A9AE3
:10529000127821F82200FFE7FFE724E10A9840781E
:1052A000002840F09080FFE7FFE70B980A99097803
:1052B00030F82100ADF81A00BDF81A0040040028AB
:1052C00017D5FFE7FFE70B980A99097830F8210016
:1052D00048F68F710840ADF81800BDF818004CF280
:1052E000800108430B990A9A127821F82200FFE7FF
:1052F000FFE7FFE7FFE70B980A99097830F82100EC
:10530000ADF81600BDF816004006002817D5FFE7D7
:10531000FFE70B980A99097830F8210048F68F7159
:105320000840ADF81400BDF8140048F2C00108436D
:105330000B990A9A127821F82200FFE7FFE7FFE7AE
:10534000FFE70B980A99097830F8210048F68F7129
:105350000840ADF81200BDF8120048F2C001084341
:105360000B990A9A127821F82200FFE7FFE70B98C1
:105370000A99097830F821004BF68F710840ADF892
:105380001000BDF8100048F2800108430B990A9AFA
:10539000127821F82200FFE7FFE70B980A990978B5
:1053A00030F8210048F6BF710840ADF80E00BDF896
:1053B0000E0048F2800108430B990A9A127821F8EE
:1053C0002200FFE78EE0FFE70B980A99097830F892
:1053D0002100ADF80C00BDF80C004004002817D5E2
:1053E000FFE7FFE70B980A99097830F8210048F6A3
:1053F0008F710840ADF80A00BDF80A004CF2800138
:1054000008430B990A9A127821F82200FFE7FFE778
:10541000FFE7FFE70B980A99097830F82100ADF80B
:105420000800BDF808004006002817D5FFE7FFE791
:105430000B980A99097830F8210048F68F710840D6
:10544000ADF80600BDF8060048F2C00108430B990C
:105450000A9A127821F82200FFE7FFE7FFE7FFE74B
:105460000B980A99097830F8210048F68F710840A6
:10547000ADF80400BDF804004CF2800108430B991C
:105480000A9A127821F82200FFE7FFE70B980A99A1
:10549000097830F8210048F6BF710840ADF80200E5
:1054A000BDF8020048F2800108430B990A9A12786D
:1054B00021F82200FFE7FFE70B980A99097830F8F6
:1054C00021004BF68F710840ADF80000BDF80000D8
:1054D00048F2800108430B990A9A127821F82200B9
:1054E000FFE7FFE7FFE700200CB0704781B00090B6
:1054F000002001B07047000081B00090002001B092
:1055000070470000F0B589B0129E119D109CDDF827
:105510003CE0DDF838C0089607950694CDF814E015
:10552000CDF810C0039302920191009000990120E0
:10553000A1F8400000990020A1F840000099A1F8CE
:1055400044000099A1F8500009B0F0BD82B001906C
:105550004FF43F400090009A0199B1F84000904309
:10556000A1F84000002002B07047000082B0019016
:105570000091002002B0704785B004900391039819
:10558000007B002840F09980FFE7039840780028CE
:1055900049D0FFE7FFE704980399097830F8210024
:1055A000ADF80A00BDF80A004006002817D5FFE74D
:1055B000FFE704980399097830F8210048F68F71C5
:1055C0000840ADF80800BDF8080048F2C0010843E3
:1055D0000499039A127821F82200FFE7FFE7FFE71A
:1055E0000398C07801281DD0FFE7FFE704980399CE
:1055F000097830F8210048F6BF710840ADF8060080
:10560000BDF8060080F02000ADF80600BDF80600E9
:1056100048F2800108430499039A127821F8220085
:10562000FFE7FFE748E0FFE704980399097830F8BF
:105630002100ADF80400BDF804004004002817D58F
:10564000FFE7FFE704980399097830F8210048F64E
:105650008F710840ADF80200BDF802004CF28001E5
:1056600008430499039A127821F82200FFE7FFE724
:10567000FFE7FFE704980399097830F821004BF61B
:105680008F710840ADF80000BDF8000080F4805034
:10569000ADF80000BDF8000080F40050ADF8000047
:1056A000BDF8000048F2800108430499039A12787B
:1056B00021F82200FFE7FFE7FFE7002005B0704771
:1056C00083B00290019101984078E8B1FFE7FFE7CD
:1056D00002980199097830F8210048F6BF71084016
:1056E000ADF80200BDF8020080F01000ADF8020035
:1056F000BDF8020048F2800108430299019A12782D
:1057000021F82200FFE71CE0FFE7029801990978E1
:1057100030F821004BF68F710840ADF80000BDF85D
:10572000000080F48050ADF80000BDF8000048F2A1
:10573000800108430299019A127821F82200FFE7BC
:10574000FFE7002003B0704780B5C4B0429041919C
:1057500041984078012840F01B84FFE74198016997
:105760008069884204D9FFE741980069409003E0CE
:10577000419880694090FFE74198007BF0B9FFE7CE
:105780004298419A5169D288BDF8003100F068FF13
:10579000FFE742983E904298B0F850103E98084477
:1057A0003E903E984199097800EB011000F20440C8
:1057B0003D9040983D990880FFE7C6E34198C07846
:1057C000022840F0A982FFE741980169006A8842F7
:1057D00040F26582FFE7FFE742984199097830F887
:1057E000210048F68F710840ADF8F200BDF8F200D4
:1057F00048F2801108434299419A127821F8220018
:10580000FFE7409A4199086A801A086242984199D4
:10581000097830F821004006002840F12081FFE798
:10582000FFE742983B9041984078002854D1FFE729
:10583000FFE7429839904298B0F8501039980844E0
:10584000399039984199097800EB011000F20C4029
:105850003890FFE7389908886FF39F2008804098B8
:105860003F2817D3FFE7FFE74098400937909DF89E
:105870000001C00620B9FFE7379801383790FFE7ED
:10588000379A3899088840EA822040F4004008801E
:10589000FFE71EE0409830B9FFE73899088840F4E8
:1058A0000040088014E0FFE74098400837909DF8DA
:1058B0000001C00720B1FFE7379801303790FFE7BC
:1058C000379A3899088840EA82200880FFE7FFE786
:1058D000FFE7FFE7FFE717E041984078012812D182
:1058E000FFE74298B0F850103B9808443B903B9833
:1058F0004199097800EB011000F20C403A90409871
:105900003A990880FFE7FFE7FFE741984089ADF843
:10591000FE00429841994969BDF8FE20BDF800316A
:1059200000F09EFE409A41994869104448614198B0
:105930000169006A884206D9FFE7409A4199086ADE
:10594000801A086206E04198006A40904199002060
:105950000862FFE7FFE741984078002854D1FFE74D
:10596000FFE7429836904298B0F8501036980844B5
:10597000369036984199097800EB011000F2044006
:105980003590FFE7359908886FF39F20088040988D
:105990003F2817D3FFE7FFE74098400934909DF870
:1059A0000001C00620B9FFE7349801383490FFE7C2
:1059B000349A3599088840EA822040F400400880F3
:1059C000FFE71EE0409830B9FFE73599088840F4BA
:1059D0000040088014E0FFE74098400834909DF8AC
:1059E0000001C00720B1FFE7349801303490FFE791
:1059F000349A3599088840EA82200880FFE7FFE75B
:105A0000FFE7FFE7FFE71BE041984078012816D148
:105A1000FFE7FFE7429833904298B0F85010339870
:105A20000844339033984199097800EB011000F253
:105A300004403290409832990880FFE7FFE7FFE783
:105A4000FFE741980089ADF8FE0042984199496905
:105A5000BDF8FE20BDF8003100F002FE1EE1FFE7B8
:105A600041984078002854D1FFE7FFE742983190F1
:105A70004298B0F8501031980844319031984199CB
:105A8000097800EB011000F204403090FFE73099F4
:105A900008886FF39F20088040983F2817D3FFE7BE
:105AA000FFE7409840092F909DF80001C00620B9FB
:105AB000FFE72F9801382F90FFE72F9A3099088839
:105AC00040EA822040F400400880FFE71EE0409852
:105AD00030B9FFE73099088840F40040088014E0AE
