:020000040800F2
:10000000B01A002075020008BD5100086D490008B3
:10001000B951000889140008B194000800000000DC
:1000200000000000000000000000000081590008EE
:10003000A51500080000000041590008D959000822
:100040008F0200088F0200088F0200088F0200084C
:100050008F0200088F0200088F0200088F0200083C
:100060008F0200088F0200088F0200088F0200082C
:100070008F0200088F0200088F0200088F0200081C
:100080008F0200088F0200088F0200088F0200080C
:100090004D9300088F0200088F0200088F020008AD
:1000A0008F020008755A00088F0200088F020008AE
:1000B0008F0200088F0200088F0200088F020008DC
:1000C0008F0200088F0200088F0200088F020008CC
:1000D0008F0200088F0200088F0200088F020008BC
:1000E0008F0200088F0200088F02000800F002F85B
:1000F00000F0B0F80AA090E8000C82448344AAF112
:100100000107DA4501D100F0A5F8AFF2090EBAE80F
:100110000F0013F0010F18BFFB1A43F0010318473B
:1001200014AD000034AD00000A444FF0000C10F88C
:10013000013B13F0070408BF10F8014B1D1108BF65
:1001400010F8015B641E05D010F8016B641E01F805
:10015000016BF9D113F0080F1EBF10F8014BAD1C55
:100160000C1B09D16D1E58BF01F801CBFAD505E073
:1001700014F8016B01F8016B6D1EF9D59142D6D3CD
:10018000704700000023002400250026103A28BFF5
:1001900078C1FBD8520728BF30C148BF0B607047F9
:1001A0006E2900F0A981702900F0EB8266290AF01F
:1001B000768565290AF0738567290AF070856129BB
:1001C0000AF06F8503681B0A28BF41F08001692986
:1001D00000F05681642900F05381752900F05081A8
:1001E0006F2900F07982782900F0B782E92900F0C0
:1001F0001382E42900F01082F52900F00D82EF2926
:1002000000F07682F82900F0B6820368DB0928BF87
:1002100041F08001632900F0B787732900F0BC87A3
:10022000E32900F0C787F32900F0CC87002070474E
:100230001FB501F01DF804000020002109F0A6FE02
:10024000401C60600020002109F08AFEE0601FBDB4
:1002500010B510BD00F0DEFF1146FFF7E9FF09F011
:10026000AFF901F0BBF803B4FFF7F2FF03BC01F0F4
:1002700003F900000948804709480047FEE7FEE708
:10028000FEE7FEE7FEE7FEE7FEE7FEE7FEE7FEE746
:1002900004480549054A064B70470000715A00089A
:1002A000ED000008B0140020B01A0020B0160020A5
:1002B000B01600200FB41CB5084B06AA7B44694653
:1002C0000090059800F031F904460020694600F0DE
:1002D0003FF920461CBC5DF814FB000091020000B1
:1002E00040EA0103024630B59B0710D14FF00134BC
:1002F00000E008C208C91D1B9D4315EAC41FF8D0C1
:1003000013F0FF0102F8011B0DD01B0AF8E711F8EA
:10031000013B002B02F8013B05D011F8013B002BFB
:1003200002F8013BF3D130BD10B5431C02E010F8D8
:10033000011B71B18107FAD14FF0013202C88C1A4A
:100340008C4314EAC211F9D0C01A0A0603D0C01EA9
:1003500010BDC01A10BD0A0401D0801E10BD0902D4
:10036000FCD0401E10BD4FF0000200B5134694466D
:100370009646203922BFA0E80C50A0E80C50B1F1FD
:100380002001BFF4F7AF090728BFA0E80C5048BF11
:100390000CC05DF804EB890028BF40F8042B08BFAF
:1003A000704748BF20F8022B11F0804F18BF00F8AB
:1003B000012B704770477047704770B504468569D8
:1003C0000068C10601D5302600E02026C00707D00E
:1003D00070BDD4E9012130469047206A401C20625C
:1003E0006D1EF6D570BD70B5044685690078C007EE
:1003F00007D170BDD4E9012120209047206A401C1C
:1004000020626D1EF6D570BD09684A0501D540B25F
:100410007047C905FCD500B2704709684A0501D587
:10042000C0B27047C905FCD580B2704770B50C46A4
:100430000546012A05D02878800600D5EA69002300
:1004400002E0012305E05B1C934202D2E05C00283D
:10045000F9D1A869E618C01AA861286A1844286268
:100460002846FFF7AAFF04E0D5E9012114F8010BA3
:100470009047B442F8D32846FFF7B5FF70BD00009F
:100480002DE9F0410646002410687529314616A56D
:1004900010D0FFF7B9FF002802DA404213A507E0A9
:1004A00031688A0701D512A502E0490704D511A5D4
:1004B000012401E0FFF7B1FF00210A2206F1240721
:1004C00009E0B0FBF2FCB0FBF2F302FB1C003030A1
:1004D00078541846491C0028F3D123462A46304652
:1004E000BDE8F04100F061BA000000002D000000FE
:1004F0002B0000002000000011680268006A53050C
:1005000001D508700AE0D30501D5088006E013067E
:1005100003D5C217C1E9000200E00860012070475E
:1005200001694A1C02610878704700B58FB0CDE9B7
:1005300001310021059105497944CDE903101146A7
:10054000684600F029F90FB000BD0000E5FFFFFF8D
:100550000A6802F8010B0A60704700002DE9FF5F8E
:1005600015468A460446DFF8AC80F8440027D8E9EF
:1005700000103E46CDE9001010E03AF816106A4629
:1005800002A800F023FE411C07D02178890603D57C
:10059000E269391891420DD80744761C207880060C
:1005A00002D5E069B84205DDAE42E6DB3AF8160056
:1005B0000028E2D1A069C01BA0612046FFF7FDFE24
:1005C000D8E90010CDE90010002017E03AF8181023
:1005D0006A4602A800F0FAFDB0F1FF3F81460BD059
:1005E00000250DF1080B05E0D4E901211BF80500F9
:1005F00090476D1C4D45F7D308F10100B04280468D
:10060000E4DB206A384420622046FFF7ECFEBDE8B8
:10061000FF9F00003AA700002DE9F0418046D21D5F
:1006200022F007020025D2E90002F52915A614D010
:10063000011E72F1000106DA0023D0EB030063EB28
:10064000020211A608E0D8F800108B0701D50FA60A
:1006500002E0490701D50EA601251146002408F144
:10066000240704E000F05CF930323A55641C50EA8B
:100670000102F7D12B46324621464046BDE8F04103
:1006800000F093B9000000002D0000002B000000D6
:100690002000000030B4002100F1240408E002F042
:1006A0000705D208303542EA4372DB086554491C1D
:1006B00052EA0305F3D10468002310A2250708D5E8
:1006C00004F020040C4304D0C46901230CA2641E6E
:1006D000C46130BC00F069B910B504462146106809
:1006E000FFF79BFE02462046BDE810400023D1E7FD
:1006F000D21D22F00701D1E90023CBE70000000062
:1007000030000000F0B40D460188090502D5214CE7
:100710007C4402E01F4C7C440E34002100F124068E
:1007200008E002F00F071209E75D42EA03721B09B5
:100730007754491C52EA0307F3D1027800231207C9
:1007400004D5702D06D009B1022311342246F0BC25
:1007500000F02BB901231034F8E770B504460D46BC
:1007600021461068FFF759FE024629462046BDE89B
:1007700070400023C6E7D21D22F00703D3E900230F
:10078000C0E70368126843F0200303600823C361D5
:100790000023B7E79CA500002DE9F05F89460446D9
:1007A0004FF0000ADFF874B1FB44C0F820A02046E7
:1007B000E1688847002874D0252806D0D4E90121B3
:1007C0009047206A401C2062F1E700265F462046E1
:1007D000E16888472028054607DB312D05D27819C6
:1007E00010F8200C08B10643F1E7B00701D526F058
:1007F0000406C4F81CA00027C4F818A02A2D09D0AC
:10080000284609F0A5FB38B304EB8708303DC8F84B
:10081000185019E059F8041B204604EB8702916137
:10082000E1688847012F054618D1E069002820DAE1
:1008300026F020061DE0D8F8180000EB800005EB3C
:1008400040003038C8F818002046E168884705465F
:1008500009F07EFB0028EED1012F0AD02E2D08D101
:100860002046E16888477F1C0546022F46F0200697
:10087000C4DBA069002803DA404246F00106A0610B
:10088000F00701D026F010066C2D0BD0682D09D092
:100890004C2D39D06A2D35D0742D35D07A2D33D0EA
:1008A00016E038E0E1682F4620468847B842054602
:1008B00009D16C2F26D04FF48060E16806432046B2
:1008C0008847054604E06C2F1AD04FF48070064329
:1008D0000DB3A5F14100192802D8203546F4006671
:1008E0004A462946204626604E46FFF759FC80B10D
:1008F00001280BD0F61D26F0070000F1080956E785
:100900004020E4E78020D8E70020D6E706F104097C
:100910004DE7284652E7206ABDE8F09F2CA500006D
:1009200030B5B0F10A0271F100034FEA900E4EEAC1
:10093000817EB0EB0E0061EB91014FEA101E4EEA92
:10094000017E10EB0E0041EB11114FEA102E4EEA22
:10095000016E10EB0E0041EB11214FEA104E4EEAF2
:10096000014E10EB0E0041EB1141401841F1000126
:100970004FEAD00040EA41704FEAD1014FEA8104CA
:1009800044EA907410EB800544EB01046D1944EBCC
:100990000404521BA3414FF0000348BF0A3200D5A4
:1009A00030BD401C41F1000130BD2DE9F0470D463E
:1009B00099469246044600F124080168880604D549
:1009C000E06921F01001216000E00120A84201DD72
:1009D000471B00E00027A1697A1902EB0900081AF9
:1009E000A0612078C00602D42046FFF7E6FC00266E
:1009F00008E0D4E901211AF806009047206A401C5B
:100A0000761C20624E45F4DB2078C0060AD52046CD
:100A1000FFF7D3FC06E0D4E9012130209047206A9B
:100A2000401C2062381EA7F10107F4DC07E0D4E97E
:100A3000012118F805009047206A401C2062281EFA
:100A4000A5F10105F3DC2046FFF7CDFC2078000678
:100A500002D50220BDE8F0870120FBE72DE9FF4F1A
:100A60000C461E464FF0FF378BB0D2E90001DDF88F
:100A700060800A908A46C1F30A5505B93D460021B7
:100A800008464FF00000BAF1000F00F4400005DA0C
:100A900000EB80004FF4400101EA50004FEA90590A
:100AA000B9F1010F00DDB9460A9850EA4A000ED0AC
:100AB00044F61050A5F2FF3545432F14B8F1000F4E
:100AC0001ED07542291E1EDDC9F100021CE0B8F1DE
:100AD000010F4FF0000001D0302103E0F24305E0A8
:100AE0002154401CB042FBDB30460022002121543F
:100AF0000B99C1F80880C1E900200FB0BDE8F08F64
:100B0000BD1B6D1CDEE74A4600DA694206A800F00C
:100B1000F3FB06AB93E8070003AB83E807005046FE
:100B20000A9908F038FE8DE80700A0F500501F383C
:100B300000900398002D0ADD42F21F014A46084446
:100B4000002303A90390684609F0A2F809E0A0F584
:100B500000504A461F38002303A90390684609F055
:100B6000ACF88DE807000004000C03D04FF0FF3014
:100B7000410800E01046B8F1000F03D000220092B7
:100B800015461EE0751E05D4FFF7CAFE30326255C9
:100B90006D1EF9D5B3460122084302D000227F1C06
:100BA00004E02078302801D100227F1E002A099716
:100BB00084D01DE0112D07DAFFF7B2FE3032625506
:100BC0006D1C50EA0102F5D1084302D00098C8B16B
:100BD0000EE00021681E05E0235C625C6354225431
:100BE000401E491C8142F7DBAB46A81B401E099002
:100BF000002004F80B000B98099AC0F80880C0E99F
:100C0000002B7AE711264FF0000857E72DE9F04F47
:100C100088460446D21D22F0070191B0D1E90001B7
:100C2000CDE90A0109F080F902460B98C00F01D006
:100C30002D2007E02068810701D52B2002E020212C
:100C400001EAC000032A099001D0072A05DB034608
:100C50004146204600F010FB0BE12078800601D5CC
:100C6000E06900E00620B8F1650F814606D0B8F1D2
:100C7000660F18D0B8F1670F70D131E00020B9F1DC
:100C8000110F009001DB112301E009F101030AAA11
:100C900001A90CA8FFF7E2FEDDE90C70002609F1BE
:100CA0000105834647E001204B4600904FF0004786
:100CB0000AAA01A90CA8FFF7D1FEDDE90DB00C9935
:100CC0005D46002610B909F101000D18B9EB0500C9
:100CD00003D4C0F1FF3609F10105A5EB09002BE0B3
:100CE000B9F1010F01DA4FF001090020B9F1110F3C
:100CF0000090484601DD112300E003460AAA01A93D
:100D00000CA8FFF7ABFEDDE90C704D4600268346CC
:100D1000207800070AD4AB4500DA5D4601A8012D12
:100D200004DD411911F8011C302907D04F4502DAC2
:100D300017F1040F04DA012082460FE06D1EEEE782
:100D4000002F02DCED1B3E4403E0781CA84200DDCE
:100D50007D1CB81B00F1010A4FF000472078000706
:100D600003D4AA4501DB4FF0FF3A0021B7F1004F51
:100D70000DF143088DF8431024D002202B23002FBF
:100D800001DA7F422D230A21021EA0F1010000DCBE
:100D90005FB197FBF1FC97FBF1F201FB1C7C17465E
:100DA0000CF1300C08F801CDEEE7A8F1010003705A
:100DB0002188090501D5452100E06521A0F1010840
:100DC00000F8011C09980FA9A1EB0807FF1D00B14D
:100DD0000120411901EBEA70A1693844081A401E4C
:100DE000A0612078C00602D42046FFF7E6FA0998F1
:100DF00028B1D4E901219047206A401C2062207864
:100E0000C00622D52046FFF7D8FA1EE0002E04DBEC
:100E1000B34502DD01A8805D00E03020D4E9012166
:100E20009047206A401C2062761CAAF101005FEA0C
:100E3000000A0AD100F01CFAC0680168405CD4E9DD
:100E400001219047206A401C2062281EA5F101055F
:100E5000DCDC07E0D4E9012118F8010B9047206A97
:100E6000401C2062381EA7F10107F3DC2046FFF783
:100E7000BAFA032011B041E62DE9F04F04460D46C1
:100E8000D21D22F0070089B0D0E9009748463946C4
:100E900009F04AF80246F80F01D02D2307E0206838
:100EA000810701D52B2302E0202101EAC0038DF840
:100EB00020300BB1012000E00020032A824601D03F
:100EC000072A04DB2946204600F0D6F93FE12078C6
:100ED000800601D40D2500E0E569C7F30A560D2D03
:100EE00049DA00214FEA175B08464FF00000002F57
:100EF00000F4400007DA00EB80004FF4400100EB03
:100F0000D07001EA60008115012901DD4FF0FF3149
:100F100000224FEA850CBCF1180F06D31346ACF142
:100F200018004FF08052C24003E04FF4801323FAC0
:100F30000CF30CF10C0CBCF1200F04D3ACF1200C21
:100F400009FA0CF001E007FA0CF000294FF0004814
:100F500001DD18B90FE00ED140450CD319EB0209A1
:100F60005F4121B9404502D19F4329EA0209BBEB09
:100F7000175F00D0761C2088000502D57B48784496
:100F800002E07A487844193808AA302302F80A3077
:100F9000037C0AF10101002E0AF1020A53546A4649
:100FA00002DC4FF0300101E04FF031014FF0010859
:100FB0008DF8001002D0A6F2FF3603E059EA47018F
:100FC00000D06B4E002D02DC2178090704D54FF0CC
:100FD00002082E218DF80110C44600210BE0C7F352
:100FE00003433F01C35C491C6D1E02F8083005290C
:100FF00008F1010801DA002DF1DC00210CE000EB22
:101000001973491C1B786D1E082902F808304FEA35
:10101000091908F1010801DA002DF0DC21688B06BE
:1010200002D516E0A8F10108E04505DD02EB080352
:1010300013F8013C302BF5D0B8F1000F09DD02EBBD
:10104000080313F8013C2E2B03D1090701D4A8F1A2
:101050000108002D05DD3E2102F808106D1E08F183
:101060000108407C002E02F8080008F1010804DAAB
:101070002D20764202F8080002E02B2002F808003A
:101080000A214FF47A70864208F101080BDB96FBC7
:10109000F0F3303302F8083096FBF0F308F1010862
:1010A00000FB136601E0642E0CDB642096FBF0F37A
:1010B000303302F8083096FBF0F308F1010800FB2A
:1010C000136601E00A2E06DB96FBF1F0303002F8E1
:1010D000080008F1010896FBF1F001FB10603030C8
:1010E00002F80800A16908F1010808EB050202EB0B
:1010F0000A00081AA0612078C00602D42046FFF733
:101100005CF9216A08AE01EB0A00206204E0D4E930
:10111000012116F8010B9047BAF1010AF7D22078A5
:10112000C00602D52046FFF748F96E4609E016F8DA
:10113000010B3E280FD0D4E901219047206A401CC2
:101140002062B8F10108F2D22046FFF74CF909B04D
:101150000320BDE8F08F206A2844206203E0D4E930
:101160000121302090476D1EEBD3F8E77A9D0000F7
:1011700002FCFFFF10B5436913B1AFF3008001E03B
:10118000FFF754F9012010BD127800F124010A7014
:1011900000224A700122EDE711684FF0FF32E9E7C3
:1011A00010B5436913B1AFF3008001E0FFF7D6F942
:1011B000012010BD128800F1240182840022C28423
:1011C0000122EDE711684FF0FF32E9E72DE9F04128
:1011D00016460C46054600F043F8036893F80101F3
:1011E000012807D0FF2C12D8185D80B101202C7087
:1011F000BDE8F081D3F807013246214603F2071318
:10120000C7182846BC46BDE8F041002360474FF0B0
:10121000FF30EDE7754600F0EBF8AE460500694695
:10122000534620F00700854618B020B5FFF730F888
:10123000BDE820404FF000064FF000074FF00008D7
:101240004FF0000BAC46ACE8C009ACE8C009ACE814
:10125000C009ACE8C00921F007018D4670470000C5
:1012600010B500F005F8001D10BD00BF218D000075
:1012700000487047980100202DE9F0411F460446C0
:1012800003260168072A01F4006004DB08B116A5F3
:1012900005E016A503E008B115A500E015A521F0AD
:1012A00010002060A069C01EA0610FB1401EA061A7
:1012B0002046FFF782F84FB1D4E901213846904724
:1012C000206A401C2062C01C206206E0206AFAE707
:1012D000D4E9012115F8010B9047761EF8D220467B
:1012E000FFF781F8BDE8F0814E414E006E616E005F
:1012F000494E4600696E66002DE9F0478146164664
:101300008AB0354878440DC88DE80D0032487844DD
:10131000801C03AC0DC884E80D0041F69B300844E6
:10132000372190FBF1F290FBF1F5A5F1800501FB6F
:1013300012041B3C02D56442012000E00020DFF8CB
:1013400098A080460027FA44AAF1BE0A0EE0E00702
:101350000AD03246684607EB470101230AEB8101B8
:1013600008F0ABFC8DE8070064107F1C002CEED168
:10137000194F7F44AE3F19E0E80715D007EB041082
:101380000DF1180A90E80E008AE80E00C068F042DD
:1013900001D1981908903246012306A903A808F044
:1013A0008CFC03AB83E807006D10641C002DE3D1B7
:1013B0004FF0010332466946B8F1000F03A802D08E
:1013C00008F066FC01E008F078FCC9E90001C9F802
:1013D00008200AB0BDE8F087849A000010B50446E2
:1013E000AFF300802046BDE81040FEF73CBF000090
:1013F00000487047780100204FF0013C50F8042B62
:1014000051F8043B9A4221D1A2EB0C03934313EA17
:10141000CC1317D150F8042B51F8043B9A4215D144
:10142000A2EB0C03934313EACC130BD150F8042B1B
:1014300051F8043B9A4209D1A2EB0C03934313EAFF
:10144000CC13DBD04FF00000704700BFD01A01BAB8
:10145000B1FA81F101F0180122FA01F0CB40DBB2C0
:10146000C0B2C01AC1F120012CFA01F3D11A914384
:1014700011EAC311E6D1704701491820ABBEFEE75F
:101480002600020070470000FFE7FEE784B08DF8F9
:101490000F000291ADF806209DF80F000146009163
:1014A00023281DD80099DFE801F012131415161B2C
:1014B0001B1B1B1B1B1B1B1B1B1B1B1B1B1B1B1B7C
:1014C0001B1B1B1B1B1B1B1B1B1B1718191A08E0C4
:1014D00007E006E005E004E003E002E001E000E0F0
:1014E000FFE7002004B070470020704780B582B04D
:1014F00040F65C60C2F20000009040F65C21C2F24F
:1015000000010022019204F091FD009840F25C611C
:10151000C2F2000104F07CFD019802B080BD000021
:1015200080B584B003900291039940F65C60C2F2EA
:101530000000019004F06CFD019804F023FD0020F0
:1015400004B080BD80B586B00490ADF80E100020C8
:101550008DF80D0040F65C60C2F20000D0F8B802D1
:1015600002900298D0F8140220B1FFE701208DF814
:10157000170013E00499BDF80E2040F65C60C2F23B
:101580000000019004F052FD019804F015FE8DF862
:101590000D009DF80D008DF81700FFE79DF817006E
:1015A00006B080BD7047000081B0EFF3108072B6C6
:1015B0000090FFE7FEE7000080B584B04FF2E870CE
:1015C000C1F6FF70006803904FF2EC70C1F6FF7037
:1015D000006802904FF2F070C1F6FF700068019051
:1015E0000199039808440390039888B1FFE7039892
:1015F00040F25811C2F2000100910231082203F0BA
:10160000CBFC009902981231042203F0C5FCFFE7DD
:1016100004B080BD90B00F900E9100200D90099005
:10162000FFE70E9800680D99C840002800F07F8100
:10163000FFE70D99012088400C900E9800680C99E6
:1016400008400B900B980C99884240F06C81FFE7A2
:101650000E9840680590002851D0FFE705980128B2
:101660003AD0FFE7059802283FD0FFE70598032806
:101670005FD0FFE70598112832D0FFE705981228C0
:1016800038D0FFE705980021C1F21101884236D019
:10169000FFE705980021C1F2120188422FD0FFE731
:1016A00005980021C1F22101884228D0FFE7059862
:1016B0000021C1F22201884221D0FFE705980021D4
:1016C000C1F2310188421AD0FFE705980021C1F22A
:1016D0003201884213D02FE00E98C06809902CE0A8
:1016E0000E98C0680430099027E00E98C068083052
:1016F000099022E00E98C0680C3009901DE00E9809
:10170000806818B9FFE70420099011E00E988068FE
:10171000012806D1FFE7082009900C980F9908616D
:1017200005E0082009900C980F994861FFE7FFE752
:1017300003E00020099000E0FFE70B98FF2803D8A2
:10174000FFE70F98049003E00F9804300490FFE740
:10175000049808900B98FF2804D8FFE70D988000A4
:10176000039006E00D996FF01F0000EB81000390DD
:10177000FFE70398079008980068079A0F219140A7
:101780008843099991400843089908600E98C079E8
:10179000C006002840F1C680FFE7FFE741F21800CD
:1017A000C4F20200016841F001010160006800F02C
:1017B000010006900698FFE70D9820F0030008212D
:1017C000C4F2010140580A900D9800F00300810016
:1017D0000F2000FA01F10A9888430A900F9840F60A
:1017E0000001C4F20101884203D1FFE7002002900A
:1017F00026E00F9840F60041C4F20101884203D16F
:10180000FFE70120019018E00F9841F20001C4F2B7
:101810000101884203D1FFE7022000900AE00F99FE
:1018200041F20042C4F201020420914208BF0320A9
:101830000090FFE700980190FFE701980290FFE712
:1018400002980D9901F00301890000FA01F10A984C
:1018500008430A900A980D9921F003010822C4F266
:10186000010288500E988079C006002809D5FFE74C
:101870000B9A40F20841C4F2010108681043086065
:1018800008E00B9A40F20841C4F201010868904355
:101890000860FFE70E9880798006002809D5FFE7E9
:1018A0000B9A40F20C41C4F2010108681043086031
:1018B00008E00B9A40F20C41C4F201010868904321
:1018C0000860FFE70E9880798007002809D5FFE7B8
:1018D0000B9A40F20441C4F2010108681043086009
:1018E00008E00B9A40F20441C4F2010108689043F9
:1018F0000860FFE70E988079C00748B1FFE70B9AB0
:1019000040F20041C4F2010108681043086008E099
:101910000B9A40F20041C4F201010868904308604C
:10192000FFE7FFE7FFE70D9801300D9079E610B073
:101930007047000041F2AC40C2F2000000687047FE
:1019400080B58EB00C900C9820B9FFE701208DF87F
:10195000370043E10C9890F83D0040B9FFE70C993F
:10196000002081F83C000C9800F0A0FBFFE70C99E8
:10197000242081F83D000C980168086820F00100DF
:1019800008600C980168086840F4004008600C98F2
:101990000168086820F40040086002F0B5F80A9079
:1019A0000C98406848F2A061C0F2010188420BD84F
:1019B000FFE70A9948F28042C0F21E0200209142DD
:1019C00038BF012009900AE00A9940F60012C0F2DF
:1019D0003D020020914238BF01200990FFE709989D
:1019E000012804D1FFE701208DF83700F6E00A98BE
:1019F0004DF68361C4F21B31A0FB0110800C0B90EB
:101A00000C980068406820F03F000B9908430C993F
:101A1000096848600C980068006A20F03F00089050
:101A20000C98406848F2A061C0F20101884204D8D5
:101A3000FFE70B98013007900EE00B984FF496717A
:101A4000484344F6D351C1F26201A0FB01010120D9
:101A500000EB91100790FFE70898079908430C994D
:101A6000096808620C980068C0694CF6FF718843E9
:101A700006900C98406848F2A061C0F201018842CB
:101A80001FD8FFE70A9801380C9949684900B0FB54
:101A9000F1F001306FF31F30032803D8FFE7042073
:101AA00005900BE00A9801380C9949684900B0FB91
:101AB000F1F001306FF31F300590FFE705980490B7
:101AC0004CE00C98806868B9FFE70A9801380C99D7
:101AD000496801EB4101B0FBF1F001306FF31F30B9
:101AE00003900DE00A9801380C9949681922514376
:101AF000B0FBF1F00130042161F31F300390FFE7E8
:101B00000398000518B9FFE70120029023E00C9824
:101B1000806868B9FFE70A9801380C99496801EBB9
:101B20004101B0FBF1F001306FF31F3001900DE087
:101B30000A9801380C99496819225143B0FBF1F019
:101B40000130042161F31F300190FFE7019840F458
:101B500000400290FFE702980490FFE7069804997E
:101B600008430C990968C8610C980068006820F067
:101B7000C0000C9B1968DA691B6A1A43104308609D
:101B80000C980068806848F2FF3188430C9A11680D
:101B9000D36812691A43104388600C980068C068C3
:101BA00020F0FF000C9B19685A699B691A43104387
:101BB000C8600C980168086840F0010008600C9942
:101BC000002008640C9A202182F83D100C990863CB
:101BD0000C9981F83E008DF83700FFE79DF837003B
:101BE0000EB080BD10B590B0844614981398DDF8FF
:101BF00048E0CDF828C0ADF82610ADF82420ADF8A7
:101C00002230ADF8200000200790FFF793FE0690E9
:101C10000A9890F83D00202840F03F82FFE70A989C
:101C200006996A4611600221C0F2100101221923AF
:101C300002F0C2FF20B1FFE702208DF82F0030E252
:101C4000FFE70A9890F83C00012804D1FFE7022042
:101C50008DF82F0025E20A99012081F83C00FFE76A
:101C6000FFE70A9800680068C00738B9FFE70A98DC
:101C70000168086840F001000860FFE70A98016801
:101C8000086820F4006008600A99222081F83D006D
:101C90000A99402081F83E000A99002008641298B1
:101CA0000A994862BDF820000A9948850A98408D33
:101CB0000A9908850A990020CFF6FF70C8620A9831
:101CC000BDF82610BDF82420BDF82230DDF850C044
:101CD000069CEE46CEF80440CEF800C002F07AFE34
:101CE00020B1FFE701208DF82F00DAE10A98008D7E
:101CF000A0B9FFE7FFE7002005900A980068406957
:101D000005900A980068806905900598FFE70A9891
:101D10000168086840F4007008605DE00A98008D72
:101D200001281FD1FFE70A980168086820F4806045
:101D30000860EFF3108072B60C90FFE7002004906B
:101D40000A980068406904900A98006880690490C5
:101D50000498FFE70A980168086840F4007008607A
:101D600062B638E00A98008D02281FD1FFE70A9872
:101D70000168086840F400600860EFF3108072B6F4
:101D80000D90FFE7002003900A98006840690390D7
:101D90000A980068806903900398FFE70A98016831
:101DA000086820F48060086062B613E00A98016851
:101DB000086840F480600860FFE7002002900A98FD
:101DC0000068406902900A98006880690290029851
:101DD000FFE7FFE7FFE7FFE7FFE70A98008D00282E
:101DE00000F04981FFE70A98008D032800F207817F
:101DF000FFE70A98008D01281ED1FFE70A98149981
:101E0000069A03F007F820B1FFE701208DF82F00B4
:101E100047E10A98006800690A99496A08700A99B6
:101E2000486A013048620A99088D013808850A9984
:101E3000488D01384885E1E00A98008D022841D19B
:101E4000FFE70A98149B06996A4611600421C0F2C4
:101E50000101002202F0B0FE20B1FFE701208DF861
:101E60002F001EE1EFF3108072B60E900A98016801
:101E7000086840F4007008600A98006800690A99D0
:101E8000496A08700A99486A013048620A99088DBF
:101E9000013808850A99488D0138488562B60A9844
:101EA000006800690A99496A08700A99486A01300D
:101EB00048620A99088D013808850A99488D0138C9
:101EC00048859AE00A98149B06996A461160042195
:101ED000C0F20101002202F06FFE20B1FFE70120F5
:101EE0008DF82F00DDE00A980168086820F4806012
:101EF0000860EFF3108072B60F900A9800680069CE
:101F00000A99496A08700A99486A013048620A9930
:101F1000088D013808850A99488D0138488540F2B6
:101F20001C00C2F20000006848F21F51C5F2EB111C
:101F3000A0FB0110C00844F6D351C1F26201A0FB1E
:101F400001108009232148430790FFE707980138D3
:101F500007900798D0B9FFE70A99002008630A9A0A
:101F6000202182F83D100A9981F83E000A99086CF8
:101F700040F02000086462B6FFE70A99002081F86B
:101F80003C00FFE701208DF82F008AE0FFE70A9868
:101F90000068406900F004010020B0EB910FD5D03B
:101FA000FFE70A980168086840F4007008600A9822
:101FB000006800690A99496A08700A99486A0130FC
:101FC00048620A99088D013808850A99488D0138B8
:101FD000488562B60A98006800690A99496A0870DB
:101FE0000A99486A013048620A99088D01380885C3
:101FF0000A99488D01384885FFE7FFE73AE00A98DB
:102000001499069A02F006FF20B1FFE701208DF82F
:102010002F0046E00A98006800690A99496A08702A
:102020000A99486A013048620A99088D0138088582
:102030000A99488D013848850A980068406900F07F
:1020400004010120B0EB910F13D1FFE70A9800685B
:1020500000690A99496A08700A99486A0130486219
:102060000A99088D013808850A99488D01384885F4
:10207000FFE7FFE7B1E60A99202081F83D000A99C1
:10208000002081F83E00FFE70A99002081F83C001B
:10209000FFE700208DF82F0003E002208DF82F00CD
:1020A000FFE79DF82F0010B010BD000080B588B08C
:1020B0000790002006900590049003900798006810
:1020C00045F20041C4F2000188422CD1FFE7FFE74E
:1020D00041F21800C4F20200016841F008010160F9
:1020E000006800F0080002900298FFE7C02003900B
:1020F000122004900320069040F60040C4F2010034
:1021000003A9FFF787FAFFE741F21C00C4F20200BF
:10211000016841F400110160006800F400100190B2
:102120000198FFE7FFE708B080BD000040F27210A1
:10213000C2F20000027841F2AC41C2F2000108682C
:10214000104408607047000080B542F20001C4F2FC
:102150000201086840F010000860032000F096F8C3
:102160000F2000F005F800F03BF8002080BD0000D3
:1021700080B582B0009040F21C00C2F200000068FE
:1021800040F27211C2F200010A784FF47A71B1FB89
:10219000F2F1B0FBF1F002F065F820B1FFE70120A9
:1021A0008DF8070018E000980F280DD8FFE7009978
:1021B0004FF0FF30002200F04FF8009840F2741109
:1021C000C2F20001086003E001208DF8070003E07F
:1021D00000208DF80700FFE79DF8070002B080BDE2
:1021E00083B0FFE741F21800C4F20200016841F039
:1021F00001010160006800F0010002900298FFE711
:10220000FFE741F21C00C4F20200016841F0805176
:102210000160006800F0805001900198FFE7FFE73F
:102220000421C4F2010108680090009820F0E060E9
:102230000090009840F00070009000980860FFE760
:1022400003B0704780B582B08DF807009DF9070094
:1022500007F030F902B080BD80B586B08DF8170068
:10226000049103920020029007F03CF902909DF93E
:102270001700019002980499039A02F0A1FF014609
:10228000019807F037F906B080BD000080B582B034
:102290000190019807F050F902B080BD84B003901E
:1022A000ADF80A10ADF808200193BDF80A00000649
:1022B00000280CD5FFE70398BDF80A1001F00701CC
:1022C00001EB810100EBC100283000900AE0039887
:1022D000BDF80A1001EB810100EBC10000F5B470FC
:1022E0000090FFE7BDF8080038B9FFE7009900202B
:1022F000087301980099C8800AE0009901200873CA
:10230000019800990881BDF8060000994881FFE70F
:10231000002004B07047000082B001908DF80310D7
:102320009DF80300012801D1FFE700E0FFE702B0BC
:102330007047000080B582B001908DF80310019ABB
:10234000D2F8EC029DF8031001EB810302EBC3020B
:10235000D26B04F0A3FB02B080BD000080B582B058
:1023600001908DF80310019AD2F8EC029DF8031049
:1023700001EB810302EBC302D2F87C2104F040FCA4
:1023800002B080BD80B584B002908DF807109DF832
:102390000700000600280FD5FFE702989DF80710F8
:1023A00001F0070101EB810100EBC1002830009032
:1023B0000099012048700FE002989DF8071001F085
:1023C000070101EB810100EBC10000F5B470009042
:1023D000009900204870FFE79DF8070000F0070013
:1023E00000990870FFE7029890F8A802012804D12C
:1023F000FFE702208DF80F0014E00299012081F818
:10240000A802FFE7FFE702980068009905F0A4FD25
:10241000FFE70299002081F8A802FFE700208DF86D
:102420000F00FFE79DF80F0004B080BD80B584B0B9
:1024300002908DF807109DF8070000F00F00029938
:102440004968884204D9FFE701208DF80F004DE06C
:102450009DF80700000600280FD5FFE702989DF8B9
:10246000071001F0070101EB810100EBC1002830EA
:1024700000900099012048700FE002989DF8071025
:1024800001F0070101EB810100EBC10000F5B47020
:102490000090009900204870FFE7009900208870A4
:1024A0009DF8070000F0070000990870FFE7029808
:1024B00090F8A802012804D1FFE702208DF80F0050
:1024C00014E00299012081F8A802FFE7FFE70298D3
:1024D0000068009905F036FFFFE70299002081F8B7
:1024E000A802FFE700208DF80F00FFE79DF80F001E
:1024F00004B080BD80B586B005900491ADF80E2083
:10250000BDF80E004004002877D5FFE70598006865
:10251000B0F850000499097800EBC10105980068F3
:1025200000EB4100B0F804046FF39F20ADF80C00FD
:1025300004988069BDF80C10884207D3FFE7BDF806
:102540000C2004998869801A886103E004990020AE
:102550008861FFE704988069F8B9FFE7FFE705980D
:1025600000680499097830F821004BF68F71084013
:10257000ADF80A00BDF80A0080F40050ADF80A007A
:10258000BDF80A0048F28001084305990968049AD9
:10259000127821F82200FFE7FFE7BDF80E004006A1
:1025A00000281BD5FFE7FFE7FFE7059800680499BF
:1025B000097830F8210048F68F710840ADF808001E
:1025C000BDF8080048F2C001084305990968049A5B
:1025D000127821F82200FFE7FFE7FFE7BDF80C00C3
:1025E00050B1FFE705980068049A51691289BDF857
:1025F0000C3006F0BDFEFFE776E005980068B0F805
:1026000050000499097800EBC1010598006800EBBF
:102610004100B0F80C046FF39F20ADF80C00049853
:102620008069BDF80C10884207D3FFE7BDF80C2085
:1026300004998869801A886103E004990020886100
:10264000FFE704988069F8B9FFE7FFE7059800689D
:102650000499097830F821004BF68F710840ADF8E5
:102660000600BDF8060080F40050ADF80600BDF885
:10267000060048F28001084305990968049A127817
:1026800021F82200FFE7FFE7BDF80E004006002812
:102690001BD4FFE7FFE7FFE7059800680499097876
:1026A00030F8210048F68F710840ADF80400BDF8FD
:1026B000040048F2C001084305990968049A127899
:1026C00021F82200FFE7FFE7FFE7BDF80C0050B15B
:1026D000FFE705980068049A51695289BDF80C30EB
:1026E00006F046FEFFE7FFE7BDF80C0006B080BD30
:1026F00080B5A6B025902491ADF88E20BDF88E004F
:102700004006002840F1BB81FFE725980068B0F83B
:1027100050002499097800EBC1012598006800EB6E
:102720004100B0F804046FF39F20ADF886002498B0
:102730008069BDF88610884207D9FFE7BDF886207A
:1027400024998869801A886103E0249900208861AF
:10275000FFE724988069002840F0B080FFE7FFE79A
:102760002498407808BBFFE7FFE725980068209091
:1027700025980068B0F850102098084420902098C0
:102780002499097800EB011000F204401F90FFE744
:102790001F9908886FF39F2008801F99088840F4CC
:1027A00000400880FFE7FFE71DE0249840780128FB
:1027B00018D1FFE7FFE7259800681D90259800686D
:1027C000B0F850101D9808441D901D982499097860
:1027D00000EB011000F204401C901C9900200880BE
:1027E000FFE7FFE7FFE7FFE7FFE7259800681B909B
:1027F0002498407808BBFFE7FFE725980068199008
:1028000025980068B0F85010199808441990199844
:102810002499097800EB011000F20C401890FFE7B2
:10282000189908886FF39F2008801899088840F449
:1028300000400880FFE7FFE718E02498407801286F
:1028400013D1FFE725980068B0F850101B98084492
:102850001B901B982499097800EB011000F20C40A2
:102860001A901A9900200880FFE7FFE7FFE72598F4
:1028700024990978FFF75EFDBDF88E00400400281A
:102880001BD5FFE7FFE7FFE7259800682499097843
:1028900030F8210048F68F710840ADF85A00BDF8B5
:1028A0005A004CF28001084325990968249A12784D
:1028B00021F82200FFE7FFE7FFE7DFE0BDF88E0029
:1028C000400400281BD5FFE7FFE7FFE725980068D5
:1028D0002499097830F8210048F68F710840ADF846
:1028E0005800BDF858004CF280010843259909684A
:1028F000249A127821F82200FFE7FFE7FFE72498E7
:1029000090F82400012840F0B880FFE7BDF8862049
:102910002499486910444861BDF886202499C86903
:102920001044C86124980169006A884209D3FFE70E
:10293000249800692290229A2499086A801A0862D1
:1029400016E02498006A40B9FFE7BDF8860022909F
:102950002499002081F8240009E02499002081F8BE
:1029600024002499096A229124990862FFE7FFE76D
:10297000FFE724984078002856D1FFE7FFE7259825
:102980000068159025980068B0F850101598084414
:10299000159015982499097800EB011000F2044075
:1029A0001490FFE7149908886FF39F2008802298FD
:1029B0003F2817D3FFE7FFE72298400913909DF8BF
:1029C0008800C00620B9FFE7139801381390FFE78D
:1029D000139A1499088840EA822040F40040088045
:1029E000FFE71EE0229830B9FFE71499088840F409
:1029F0000040088014E0FFE72298400813909DF8FB
:102A00008800C00720B1FFE7139801301390FFE75B
:102A1000139A1499088840EA82200880FFE7FFE7AC
:102A2000FFE7FFE7FFE71DE024984078012818D171
:102A3000FFE7FFE725980068129025980068B0F836
:102A4000501012980844129012982499097800EBBB
:102A5000011000F204401190229811990880FFE7BC
:102A6000FFE7FFE7FFE725980068249A516912897C
:102A7000BDF8883006F0DAFCFFE7FFE7B7E12598FC
:102A80000068B0F850002499097800EBC10125983E
:102A9000006800EB4100B0F80C046FF39F20ADF824
:102AA000860024988069BDF88610884207D3FFE726
:102AB000BDF8862024998869801A886103E02499EA
:102AC00000208861FFE724988069002840F0B080EA
:102AD000FFE7FFE72498407808BBFFE7FFE725986A
:102AE0000068109025980068B0F8501010980844BD
:102AF000109010982499097800EB011000F204401E
:102B00000F90FFE70F9908886FF39F2008800F99B7
:102B1000088840F400400880FFE7FFE71DE02498A4
:102B20004078012818D1FFE7FFE7259800680D904D
:102B300025980068B0F850100D9808440D900D9835
:102B40002499097800EB011000F204400C900C99D4
:102B500000200880FFE7FFE7FFE7FFE7FFE7259892
:102B600000680B902498407808BBFFE7FFE72598A2
:102B70000068099025980068B0F85010099808443A
:102B8000099009982499097800EB011000F20C4093
:102B90000890FFE7089908886FF39F20088008993C
:102BA000088840F400400880FFE7FFE718E0249819
:102BB0004078012813D1FFE725980068B0F850103D
:102BC0000B9808440B900B982499097800EB01109E
:102BD00000F20C400A900A9900200880FFE7FFE706
:102BE000FFE7259824990978FFF7A4FBBDF88E002C
:102BF000400400281BD4FFE7FFE7FFE725980068A3
:102C00002499097830F8210048F68F710840ADF812
:102C10001A00BDF81A004CF2800108432599096892
:102C2000249A127821F82200FFE7FFE7FFE7DDE0B2
:102C3000BDF88E00400400281BD4FFE7FFE7FFE744
:102C4000259800682499097830F8210048F68F719A
:102C50000840ADF81800BDF818004CF28001084398
:102C600025990968249A127821F82200FFE7FFE7E6
:102C7000FFE7249890F82400012840F0B680FFE791
:102C8000BDF886202499486910444861BDF8862023
:102C90002499C8691044C86124980169006A88426F
:102CA00009D3FFE7249800692290229A2499086AA0
:102CB000801A086216E02498006A40B9FFE7BDF860
:102CC000860022902499002081F8240009E02498AD
:102CD000006A2290249900200862249981F8240037
:102CE000FFE7FFE7FFE72598006805902498407804
:102CF000002856D1FFE7FFE7259800680390259844
:102D00000068B0F850100398084403900398249981
:102D1000097800EB011000F20C400290FFE70299E5
:102D200008886FF39F20088022983F2817D3FFE779
:102D3000FFE72298400901909DF88800C00620B95D
:102D4000FFE7019801380190FFE7019A029908888E
:102D500040EA822040F400400880FFE71EE022980D
:102D600030B9FFE70299088840F40040088014E079
:102D7000FFE72298400801909DF88800C00720B125
:102D8000FFE7019801300190FFE7019A0299088856
:102D900040EA82200880FFE7FFE7FFE7FFE7FFE761
:102DA00018E024984078012813D1FFE7259800689F
:102DB000B0F85010059808440590059824990978B2
:102DC00000EB011000F20C40049022980499088056
:102DD000FFE7FFE7FFE725980068249A51695289C9
:102DE000BDF8883006F022FBFFE7FFE7FFE7FFE7CB
:102DF000259800682499097830F8210048F6BF71B9
:102E00000840ADF80200BDF8020080F01000ADF8F7
:102E10000200BDF8020080F02000ADF80200BDF80D
:102E2000020048F28001084325990968249A127823
:102E300021F82200FFE7002026B080BD82B001907B
:102E40008DF8031001989DF8031001F0070101EBC4
:102E5000810100EBC100D0F8840102B0704700008E
:102E600080B586B004908DF80F10ADF80C208DF869
:102E70000B3000208DF80A009DF80F000006002896
:102E80000FD5FFE704989DF80F1001F0070101EB43
:102E9000810100EBC10028300190019901204870A8
:102EA0000FE004989DF80F1001F0070101EB81017C
:102EB00000EBC10000F5B47001900199002048704A
:102EC000FFE79DF80F0000F0070001990870BDF8BA
:102ED0000C00019908619DF80B000199C8709DF8DC
:102EE0000B00022804D1FFE7019900200871FFE7D9
:102EF000FFE7049890F8A802012804D1FFE7022018
:102F00008DF8170015E00499012081F8A802FFE769
:102F1000FFE704980068019904F0BAFCFFE7049900
:102F2000002081F8A802FFE79DF80A008DF817003D
:102F3000FFE79DF8170006B080BD000080B586B0A1
:102F400005908DF813100392029305989DF81310C5
:102F500001F0070101EB810100EBC10000F5B47045
:102F6000019003980199486102980199886101993B
:102F700000200090C861019948709DF8130000F08E
:102F800007000199087005980068019905F0C2FAD8
:102F9000009806B080BD000080B584B002908DF826
:102FA00007109DF8070000F0070002994968884261
:102FB00004D9FFE701208DF80F0057E09DF80700C6
:102FC000000600280FD5FFE702989DF8071001F0D2
:102FD000070101EB810100EBC1002830009000994E
:102FE000012048700DE002989DF8071001EB810167
:102FF00000EBC10000F5B47000900099002048700B
:10300000FFE70099012088709DF8070000F0070095
:1030100000990870FFE7029890F8A802012804D1EF
:10302000FFE702208DF80F0020E00299012081F8CF
:10303000A802FFE7FFE702980068009905F026FA6A
:103040009DF80700400738B9FFE70299086801F5C5
:103050002C7105F071F9FFE7FFE70299002081F874
:10306000A802FFE700208DF80F00FFE79DF80F0092
:1030700004B080BD80B586B005908DF81310039222
:10308000029305989DF8131001F0070101EB8101EF
:1030900000EBC10028300190039801994861029823
:1030A000019988610199012081F824000299019A0F
:1030B0001162019A00210091D161019948709DF837
:1030C000130000F007000199087005980068019945
:1030D00005F020FA009806B080BD000080B588B0E9
:1030E00007900798006806F039F906909DF81900D6
:1030F0000006002804D5FFE7079802F097F8EDE0F6
:103100009DF819004007002810D5FFE707980168CF
:10311000B1F8440020F48060A1F84400079800F062
:103120002BFA0798002100F057FAD7E09DF8190014
:103130004006002809D5FFE707980168B1F8440068
:1031400020F48040A1F84400C8E09DF819008006F2
:10315000002809D5FFE707980168B1F8440020F47A
:103160000050A1F84400B9E09DF81900C0060028FD
:103170001CD5FFE707980168B1F8400020F0040073
:10318000A1F8400007980168B1F8400020F008005D
:10319000A1F84000079800F00BFA07980168B1F811
:1031A000440020F48050A1F8440097E09DF81900F5
:1031B0000007002872D5FFE700208DF80700FFE721
:1031C0009DF80700072812D8FFE7079800689DF8C8
:1031D000071030F821009DF8072002A921F81200FD
:1031E000FFE79DF8070001308DF80700E8E7079832
:1031F0000168B1F8400040F00100A1F840000798D4
:103200000168B1F8400020F00100A1F84000FFE79C
:1032100007980068B0F844004005002801D4FFE793
:10322000F6E707980168B1F8440020F48060A1F83F
:10323000440000208DF80700FFE79DF807000728ED
:1032400010D8FFE79DF8072002A830F81200079970
:10325000096821F82200FFE79DF8070001308DF88A
:103260000700EAE707980168B1F8400040F008005D
:10327000A1F8400007980168B1F8440020F400600C
:10328000A1F8440007980168B1F8400040F004003C
:10329000A1F84000079800F009FA1FE09DF8190016
:1032A000800700280CD5FFE707980168B1F84400B3
:1032B00020F40070A1F84400079800F083F90DE0B5
:1032C0009DF81900C00748B1FFE707980168B1F8F9
:1032D000440020F48070A1F84400FFE708B080BDEE
:1032E000F0B58DB00B900B9820B9FFE701208DF859
:1032F000330015E10B9890F8A90240B9FFE70B994C
:10330000002081F8A8020B9800F00EF9FFE70B9956
:10331000032081F8A9020B98006804F0FDFFDDF896
:103320002CE0CDF824E0DEF80000DEF80410DEF832
:103330000820DEF80C30DEF810C0DEF81440DEF8AD
:103340001850DEF81C60DEF82070EE46CEF81070E3
:10335000CEF80C60CEF80850CEF80440CEF800C08D
:1033600004F0E2FD40B1FFE70B99022081F8A902C9
:1033700001208DF83300D3E00B98006800210891FC
:1033800006F03CF808988DF82B00FFE79DF82B001D
:103390000B99496888423CD2FFE70B989DF82B10A7
:1033A00001EB810100EBC101012081F829009DF8AA
:1033B0002B000B9900EB800201EBC20181F8280081
:1033C0000B989DF82B1001EB810100EBC10100204F
:1033D00081F82B000B999DF82B2002EB820201EB68
:1033E000C20188630B999DF82B2002EB820201EB4E
:1033F000C201C8630B999DF82B2002EB820201EBFE
:10340000C2010864FFE79DF82B0001308DF82B0006
:10341000BCE700208DF82B00FFE79DF82B000B99EF
:10342000496888423ED2FFE70B989DF82B1001EBCC
:10343000810100EBC101002081F869019DF82B108A
:103440000B9A01EB810302EBC30282F868110B991E
:103450009DF82B2002EB820201EBC20181F86B0187
:103460000B999DF82B2002EB820201EBC201C1F8FF
:1034700078010B999DF82B2002EB820201EBC2012F
:10348000C1F87C010B999DF82B2002EB820201EB25
:10349000C201C1F88001FFE79DF82B0001308DF8D3
:1034A0002B00BAE7DDF82CE0CDF81CE0DEF80000D8
:1034B000DEF80410DEF80820DEF80C30DEF810C06C
:1034C000DEF81440DEF81850DEF81C60DEF82070DC
:1034D000EE46CEF81070CEF80C60CEF80850CEF85C
:1034E0000440CEF800C004F0F3FE40B1FFE70B99B2
:1034F000022081F8A90201208DF8330010E00B9919
:103500000020069081F824000B99012081F8A9027F
:103510000B98006804F0D6FE06988DF83300FFE79C
:103520009DF833000DB0F0BD80B584B003900398D2
:10353000006845F60041C4F20001884219D1FFE756
:10354000FFE741F21C00C4F20200016841F40001EF
:103550000160006800F4000002900298FFE7142068
:10356000019000221146FEF777FE0198FEF76AFEF1
:10357000FFE704B080BD000080B582B0019001205B
:103580008DF8030001988068022803D0FFE7FEF75A
:103590000BF8FFE70198D0F8EC029DF8031003F058
:1035A000EDFC0198D0F8EC0203F082FC02B080BD83
:1035B00080B582B001900198D0F8EC0203F0B2FC23
:1035C00002B080BD80B582B001900198D0F8EC02C5
:1035D00003F0BAFC02B080BD80B584B002908DF8D3
:1035E0000710FFE7029890F8A802012804D1FFE72E
:1035F00002208DF80F001AE00299012081F8A8023C
:10360000FFE7FFE79DF80700029981F82400029880
:1036100000689DF8071005F0F9FEFFE70299002009
:1036200081F8A802FFE700208DF80F00FFE79DF862
:103630000F0004B080BD000080B582B001900199F8
:10364000D1F8EC0201F52C7103F0C2FC02B080BD90
:1036500080B582B00090FFE7009890F8A80201289A
:1036600004D1FFE702208DF807001BE0009901203C
:1036700081F8A802FFE7FFE70098006805F056FE12
:1036800000980121FEF748FE0098006804F014FE3F
:10369000FFE70099002081F8A802FFE700208DF8DD
:1036A0000700FFE79DF8070002B080BD80B582B03B
:1036B00001900198D0F8EC0203F004FD01988069B4
:1036C00048B1FFE74EF61051CEF20001086840F015
:1036D00006000860FFE702B080BD000080B586B03C
:1036E000049000200390029004980078C0070028FE
:1036F00000F0AC80FFE700208DF8070041F21C00CD
:10370000C4F202000068C000002813D4FFE7FFE7FE
:1037100041F21C00C4F20200016841F080510160D6
:10372000006800F0805000900098FFE701208DF8BD
:103730000700FFE747F20000C4F200000068C00580
:10374000002822D4FFE747F20001C4F20001086814
:1037500040F480700860FEF7EDF80390FFE747F251
:103760000000C4F200000068C00500280CD4FFE788
:10377000FEF7E0F80399401A652804D3FFE7032019
:103780008DF817008AE0EAE7FFE741F22000C4F273
:103790000200006800F4407002900298E0B3FFE776
:1037A00002980499496801F44071884234D0FFE7D7
:1037B00041F22001C4F20201086820F44070029036
:1037C00040F24042C4F2422201201060002010600A
:1037D000029808609DF80800C007E0B1FFE7FEF717
:1037E000A9F80390FFE741F22000C4F2020000684C
:1037F000800700280ED4FFE7FEF79CF80399401AD3
:1038000041F28931884204D3FFE703208DF8170085
:1038100044E0E8E7FFE7FFE741F22001C4F20201DC
:10382000086820F44070049A5268104308609DF8BC
:103830000700012809D1FFE741F21C01C4F202018F
:10384000086820F080500860FFE7FFE704980078E0
:10385000800700280CD5FFE741F20401C4F2020101
:10386000086820F44040049A926810430860FFE71B
:1038700004980078C00600280CD5FFE741F2040147
:10388000C4F20201086820F48000049AD268104350
:103890000860FFE700208DF81700FFE79DF817008C
:1038A00006B080BD80B584B002900191029820B925
:1038B000FFE701208DF80F001BE1019842F20001A3
:1038C000C4F20201096801F00701884216D9FFE736
:1038D00042F20000C4F20200016821F00701019ADF
:1038E00011430160006800F007000199884204D08C
:1038F000FFE701208DF80F00FBE0FFE7029800785A
:10390000800700282AD5FFE70298007840070028A2
:1039100009D5FFE741F20401C4F20201086840F44E
:10392000E0600860FFE7029800780007002809D5EA
:10393000FFE741F20401C4F20201086840F460505C
:103940000860FFE741F20401C4F20201086820F0B8
:10395000F000029A926810430860FFE7029800782E
:10396000C007002860D0FFE70298406801280ED108
:10397000FFE741F20000C4F2020000688003002863
:1039800004D4FFE701208DF80F00B2E021E0029897
:10399000406802280ED1FFE741F20000C4F20200A5
:1039A00000688001002804D4FFE701208DF80F0093
:1039B0009FE00DE041F20000C4F2020000688007C1
:1039C000002804D4FFE701208DF80F0091E0FFE705
:1039D000FFE741F20401C4F20201086820F003008D
:1039E000029A526810430860FDF7A4FF0090FFE7B9
:1039F00041F20400C4F20200006800F00C000299D9
:103A00004968B0EB810F0ED0FFE7FDF793FF0099F7
:103A1000401A41F28931884204D3FFE703208DF830
:103A20000F0066E0E4E7FFE7019842F20001C4F20C
:103A30000201096801F00701884216D2FFE742F24D
:103A40000000C4F20200016821F00701019A11434D
:103A50000160006800F007000199884204D0FFE788
:103A600001208DF80F0044E0FFE70298007840073E
:103A700000280CD5FFE741F20401C4F202010868F6
:103A800020F4E060029AD26810430860FFE70298D1
:103A90000078000700280DD5FFE741F20401C4F2C9
:103AA0000201086820F46050029A126940EAC200DC
:103AB0000860FFE700F03AF841F20401C4F20201A5
:103AC0000968C9B20A094AF6A451C0F60001895C26
:103AD000C84040F21C01C2F20001086040F27410BC
:103AE000C2F200000068FEF743FB00208DF80F00D3
:103AF000FFE79DF80F0004B080BD000040F21C00FD
:103B0000C2F200000068704780B5FFF7F7FF41F28E
:103B10000401C4F202010968C1F302224AF6B45159
:103B2000C0F60001895CC84080BD000086B000205E
:103B30000590049003900290019041F20400C4F2B9
:103B4000020000680590059800F00C000146009105
:103B500000283FD0FFE70098042804D0FFE7009832
:103B6000082806D037E041F20020C0F27A00019028
:103B700037E00598C0F383414AF6BC50C0F6000018
:103B8000405C02909DF81600C007C0B1FFE741F20B
:103B90000400C4F202000068C0F340414AF6CC5071
:103BA000C0F60000405C0490029841F20021C0F28F
:103BB0007A0148430499B0FBF1F0039007E00298C2
:103BC00040F60011C0F23D0148430390FFE703981F
:103BD000019006E0FFE741F20020C0F27A00019078
:103BE000FFE7019806B0704780B586B0049004984E
:103BF00020B9FFE701208DF817002EE30498007824
:103C0000C007002800F0AE80FFE741F20400C4F2D4
:103C10000200006800F00C00042813D0FFE741F216
:103C20000400C4F20200006800F00C0008281BD158
:103C3000FFE741F20400C4F202000068C00300285C
:103C400012D5FFE741F20000C4F2020000688003D1
:103C5000002808D5FFE70498406820B9FFE7012055
:103C60008DF81700F9E27CE0FFE704984068B0F5B2
:103C7000803F09D1FFE741F20001C4F20201086868
:103C800040F48030086032E00498406868B9FFE78B
:103C900041F20001C4F20201086820F4803008609B
:103CA000086820F48020086020E004984068B0F59F
:103CB000A02F0DD1FFE741F20001C4F20201086814
:103CC00040F480200860086840F4803008600CE010
:103CD00041F20001C4F20201086820F4803008605B
:103CE000086820F480200860FFE7FFE7FFE7FFE7B0
:103CF00004984068D0B1FFE7FDF71CFE0390FFE792
:103D000041F20000C4F202000068800300280CD4D5
:103D1000FFE7FDF70FFE0399401A652804D3FFE77C
:103D200003208DF8170098E2EAE719E0FDF702FE9C
:103D30000390FFE741F20000C4F202000068800334
:103D400000280CD5FFE7FDF7F5FD0399401A65281B
:103D500004D3FFE703208DF817007EE2EAE7FFE7D0
:103D6000FFE7FFE7049800788007002840F18D8086
:103D7000FFE741F20400C4F20200006810F00C0FEB
:103D800013D0FFE741F20400C4F20200006800F023
:103D90000C00082829D1FFE741F20400C4F2020018
:103DA0000068C003002820D4FFE741F20000C4F2FD
:103DB000020000688007002809D5FFE70498006921
:103DC000012804D0FFE701208DF8170045E241F2F9
:103DD0000001C4F20201086820F0F800049A526958
:103DE00040EAC2000860FFE74EE00498006958B35B
:103DF000FFE70021C4F2422101200860FDF79AFD8F
:103E00000390FFE741F20000C4F20200006880075F
:103E100000280CD4FFE7FDF78DFD0399401A032815
:103E200004D3FFE703208DF8170016E2EAE741F21A
:103E30000001C4F20201086820F0F800049A5269F7
:103E400040EAC20008601EE00021C4F242210020C6
:103E50000860FDF76FFD0390FFE741F20000C4F238
:103E600002000068800700280CD5FFE7FDF762FD1F
:103E70000399401A032804D3FFE703208DF81700A5
:103E8000EBE1EAE7FFE7FFE7FFE7049800780007C8
:103E9000002848D5FFE70498806918B3FFE740F28F
:103EA0008041C4F2422101200860FDF743FD0390E8
:103EB000FFE741F22400C4F20200006880070028F6
:103EC0000CD4FFE7FDF736FD0399401A032804D30D
:103ED000FFE703208DF81700BFE1EAE7012001F0BA
:103EE00031FD1FE040F28041C4F242210020086011
:103EF000FDF720FD0390FFE741F22400C4F2020029
:103F00000068800700280CD5FFE7FDF713FD039933
:103F1000401A032804D3FFE703208DF817009CE123
:103F2000EAE7FFE7FFE7049800784007002840F140
:103F3000D880FFE700208DF8070041F21C00C4F292
:103F400002000068C000002813D4FFE7FFE741F239
:103F50001C00C4F20200016841F080510160006859
:103F600000F0805000900098FFE701208DF80700D6
:103F7000FFE747F20000C4F200000068C005002817
:103F800022D4FFE747F20001C4F20001086840F4C0
:103F900080700860FDF7CEFC0390FFE747F2000059
:103FA000C4F200000068C00500280CD4FFE7FDF74C
:103FB000C1FC0399401A652804D3FFE703208DF85C
:103FC00017004AE1EAE7FFE7FFE70498C068012825
:103FD00009D1FFE741F22001C4F20201086840F074
:103FE0000100086031E00498C06868B9FFE741F259
:103FF0002001C4F20201086820F00100086008688E
:1040000020F0040008601FE00498C06805280DD166
:10401000FFE741F22001C4F20201086840F0040009
:104020000860086840F0010008600CE041F22001DF
:10403000C4F20201086820F001000860086820F05E
:1040400004000860FFE7FFE7FFE7FFE70498C068A8
:10405000E0B1FFE7FDF76EFC0390FFE741F22000BF
:10406000C4F202000068800700280ED4FFE7FDF7C5
:1040700061FC0399401A41F28931884204D3FFE779
:1040800003208DF81700E8E0E8E71BE0FDF752FC9D
:104090000390FFE741F22000C4F2020000688007AD
:1040A00000280ED5FFE7FDF745FC0399401A41F2C1
:1040B0008931884204D3FFE703208DF81700CCE054
:1040C000E8E7FFE79DF80700012809D1FFE741F283
:1040D0001C01C4F20201086820F080500860FFE76C
:1040E000FFE70498C069002800F0B380FFE741F2C1
:1040F0000400C4F20200006800F00C00082800F080
:104100008280FFE70498C06902285CD1FFE7602144
:10411000C4F2422100200860FDF70CFC0390FFE789
:1041200041F20000C4F202000068800100280CD5B2
:10413000FFE7FDF7FFFB0399401A032804D3FFE7CD
:1041400003208DF8170088E0EAE70498006AB0F5CC
:10415000803F0CD1FFE741F20401C4F2020108687C
:1041600020F40030049A926810430860FFE741F29F
:104170000401C4F20201086820F47410049B1A6A56
:104180005B6A1A43104308606021C4F24221012097
:104190000860FDF7CFFB0390FFE741F20000C4F297
:1041A00002000068800100280CD4FFE7FDF7C2FB85
:1041B0000399401A032804D3FFE703208DF8170062
:1041C0004BE0EAE71EE06021C4F2422100200860D3
:1041D000FDF7B0FB0390FFE741F20000C4F20200DC
:1041E0000068800100280CD5FFE7FDF7A3FB0399C9
:1041F000401A032804D3FFE703208DF817002CE0B2
:10420000EAE7FFE724E00498C069012804D1FFE74A
:1042100001208DF8170020E041F20400C4F20200F2
:1042200000680290029800F480300499096A88427C
:1042300008D1FFE7029800F470100499496A884297
:1042400004D0FFE701208DF8170006E0FFE7FFE745
:10425000FFE700208DF81700FFE79DF8170006B074
:1042600080BD000080B582B00190019801F08AFB0A
:1042700002B080BD81B0009001B0704781B0009065
:1042800001B0704785B003900291FFE7039890F862
:104290003C00012804D1FFE702208DF813005BE009
:1042A0000399012081F83C00FFE7FFE70399022012
:1042B00081F83D0003980068406801900398006809
:1042C00080680090019820F07000019002980168C9
:1042D0000198084301900198039909684860039880
:1042E000006842F60041C4F20101884218D0FFE79D
:1042F00003980068B0F1804F12D0FFE70398006880
:1043000040F20041C4F20001884209D0FFE703985F
:10431000006840F60001C4F2000188420ED1FFE7B8
:10432000009820F0800000900298416800980843AF
:1043300000900098039909688860FFE703990120BD
:1043400081F83D00FFE70399002081F83C00FFE77A
:1043500000208DF81300FFE79DF8130005B07047AB
:1043600080B582B00090009820B9FFE701208DF859
:1043700007003FE0009890F83D0040B9FFE7009942
:10438000002081F83C00009800F038F8FFE7009921
:10439000022081F83D00009951F8040B01F072FBF6
:1043A0000099012081F84600FFE70099012081F87B
:1043B0003E00009981F83F00009981F84000009983
:1043C00081F84100FFE7FFE70099012081F84200F2
:1043D000009981F84300009981F84400009981F820
:1043E0004500FFE70099012081F83D0000208DF88D
:1043F0000700FFE79DF8070002B080BD80B584B0DC
:1044000003900398006842F60041C4F2010188421B
:1044100019D1FFE7FFE741F21800C4F2020001687A
:1044200041F400610160006800F4006002900298AD
:10443000FFE71920019000221146FDF70DFF0198BA
:10444000FDF700FFFFE704B080BD000083B00190DE
:10445000019890F83D00012804D0FFE701208DF875
:104460000B0047E00199022081F83D0001980168A6
:10447000C86840F00100C8600198006842F6004139
:10448000C4F20101884218D0FFE701980068B0F13A
:10449000804F12D0FFE70198006840F20041C4F25B
:1044A0000001884209D0FFE70198006840F600014A
:1044B000C4F20001884212D1FFE7019800688068C9
:1044C00000F0070000900098062807D0FFE7019849
:1044D0000168086840F001000860FFE706E0019805
:1044E0000168086840F001000860FFE700208DF8CF
:1044F0000B00FFE79DF80B0003B0704780B586B056
:104500000490039100208DF80B00FFE7049890F8C9
:104510003C00012804D1FFE702208DF81700ABE032
:104520000499012081F83C00FFE7FFE7049902208D
:1045300081F83D000498006880680190019820F09F
:1045400077000190019820F47F4001900198049930
:1045500009688860039800680090002872D0FFE71F
:10456000009810286ED0FFE7009820286AD0FFE757
:104570000098302866D0FFE70098402855D0FFE724
:104580000098502837D0FFE70098602840D0FFE718
:10459000009870280BD0FFE70098B0F5805F05D039
:1045A000FFE70098B0F5005F16D052E055E00498A0
:1045B0000068039B5A689968DB6801F0DBFA04988D
:1045C000006880680190019840F0770001900198A0
:1045D00004990968886040E004980068039B5A6861
:1045E0009968DB6801F0C6FA04980168886840F4AD
:1045F0008040886031E004980068039A5168D2686E
:1046000001F0E8FA04980068502101F0CDFA24E0A6
:1046100004980068039A5168D26801F003FB04987B
:104620000068602101F0C0FA17E004980068039A5E
:104630005168D26801F0CEFA04980068402101F078
:10464000B3FA0AE0049800680399096801F0ACFA2B
:1046500003E001208DF80B00FFE70499012081F8A9
:104660003D00FFE70499002081F83C00FFE79DF83A
:104670000B008DF81700FFE79DF8170006B080BD0E
:1046800081B0009001B0704780B582B00190019870
:104690000068006900F002010020B0EB510F28D043
:1046A000FFE701980068C06800F002010020B0EB4D
:1046B000510F1DD0FFE7019801686FF002000861FB
:1046C000019901200877019800688069800720B16E
:1046D000FFE70198FFF7D4FF06E0019800F012F918
:1046E000019800F013F9FFE7019900200877FFE730
:1046F000FFE701980068006900F004010020B0EBBA
:10470000910F29D0FFE701980068C06800F004010C
:104710000020B0EB910F1ED0FFE7019801686FF009
:1047200004000861019902200877019800688069F7
:1047300010F4407F04D0FFE70198FFF7A1FF06E0E7
:10474000019800F0DFF8019800F0E0F8FFE7019928
:1047500000200877FFE7FFE701980068006900F094
:1047600008010020B0EBD10F28D0FFE701980068C6
:10477000C06800F008010020B0EBD10F1DD0FFE7AA
:10478000019801686FF0080008610199042008771A
:1047900001980068C069800720B1FFE70198FFF722
:1047A0006FFF06E0019800F0ADF8019800F0AEF858
:1047B000FFE7019900200877FFE7FFE7019800680D
:1047C000006900F010010020B0EB111F29D0FFE7B5
:1047D00001980068C06800F010010020B0EB111FC4
:1047E0001ED0FFE7019801686FF010000861019981
:1047F0000820087701980068C06910F4407F04D051
:10480000FFE70198FFF73CFF06E0019800F07AF817
:10481000019800F07BF8FFE7019900200877FFE797
:10482000FFE7019800680069C00780B1FFE70198C1
:104830000068C068C00748B1FFE7019801686FF0E1
:1048400001000861019800F065F8FFE7FFE70198B3
:1048500000680069C1B20020B0EBD11F13D0FFE7A0
:1048600001980068C068C1B20020B0EBD11F09D028
:10487000FFE7019801686FF0800008610198FFF779
:10488000F9FCFFE7FFE701980068006900F04001CC
:104890000020B0EB911F14D0FFE701980068C068BA
:1048A00000F040010020B0EB911F09D0FFE7019814
:1048B00001686FF040000861019800F053F8FFE7CD
:1048C000FFE701980068006900F020010020B0EBCC
:1048D000511F14D0FFE701980068C06800F0200164
:1048E0000020B0EB511F09D0FFE7019801686FF07D
:1048F000200008610198FFF7C1FCFFE7FFE702B065
:1049000080BD000081B0009001B0704781B0009080
:1049100001B0704780B586B005900598006842F6F2
:104920000041C4F2010188421AD1FFE769464FF005
:10493000FF3088600420486040F2D810C2F20000C6
:104940000390086041F22010C2F2000050210022C2
:1049500001230493FDF746F9039904980871FFE7D2
:1049600006B080BD81B0009001B07047FFE7FEE760
:1049700082B0009000980068406900F480610120D6
:10498000B0EB912F1ED1FFE7009801686FF48060B3
:104990004861009900200863009A202182F83D10A8
:1049A000009981F83E000099086C40F0040008640A
:1049B000FFE70099002081F83C00FFE701208DF817
:1049C000070003E000208DF80700FFE79DF80700CF
:1049D00002B0704780B586B0DDF824C0DDF820C095
:1049E0000490ADF80E10ADF80C20ADF80A30049824
:1049F0000168086840F480600860049801680868ED
:104A000040F4807008600498089B09996A46116018
:104A10004FF00111002200F0CFF880B1FFE70498B9
:104A200000680068C005002805D5FFE704994FF429
:104A300000700864FFE703208DF81700B7E0BDF8A9
:104A40000E0000F0FE000499096808610498089AB5
:104A5000099B0221C0F2010100F032F920B1FFE709
:104A600001208DF81700A2E0FFE7002001900498D4
:104A7000006840690190049800688069019001987D
:104A8000FFE704980899099A00F032FA80B1FFE72D
:104A90000498006C042807D1FFE7049801680868AF
:104AA00040F400700860FFE701208DF817007EE0F9
:104AB000BDF80A00012806D1FFE79DF80C00049913
:104AC0000968086121E09DF80D00049909680861F2
:104AD00004980899099A00F00BFA80B1FFE704984E
:104AE000006C042807D1FFE704980168086840F4C7
:104AF00000700860FFE701208DF8170057E09DF86F
:104B00000C00049909680861FFE704980899099A5C
:104B100000F0EEF980B1FFE70498006C042807D19B
:104B2000FFE704980168086840F400700860FFE738
:104B300001208DF817003AE004980168086840F4F5
:104B4000807008600498089B09996A4611604FF0CC
:104B50000111002200F030F880B1FFE704980068EE
:104B60000068C005002805D5FFE704994FF40070E0
:104B70000864FFE703208DF8170018E09DF80E0089
:104B800040F001000499096808610498089A099B9B
:104B90000221C0F2010100F093F820B1FFE70120EB
:104BA0008DF8170003E000208DF81700FFE79DF84F
:104BB000170006B080BD000080B588B0DDF828C0C1
:104BC000069005918DF813200393FFE79DF81600DA
:104BD00001280CD1FFE7069800684069BDF8141061
:104BE0000840401AB0FA80F0400902900BE00698A5
:104BF00000688069BDF814100840401AB0FA80F0CF
:104C000040090290FFE702989DF8131088424FD1A7
:104C1000FFE703980130002849D0FFE7FCF78AFE40
:104C20000A99401A0399884203D8FFE70398E8BB22
:104C3000FFE79DF8160001280CD1FFE706980068F1
:104C40004069BDF814100840401AB0FA80F04009DD
:104C500001900BE0069800688069BDF814100840C8
:104C6000401AB0FA80F040090190FFE701989DF8E2
:104C70001310884219D1FFE7069900200863069AAD
:104C8000202182F83D10069981F83E000699086CB3
:104C900040F020000864FFE70699002081F83C00FE
:104CA000FFE701208DF81F0006E0FFE7FFE78DE733
:104CB00000208DF81F00FFE79DF81F0008B080BDA1
:104CC00080B588B00690059104920393FFE79DF8A4
:104CD000160001280CD1FFE7069800684069BDF86E
:104CE00014100840401AB0FA80F0400902900BE01E
:104CF000069800688069BDF814100840401AB0FAA0
:104D000080F040090290FFE7029800287AD1FFE77F
:104D100006980068406900F480610120B0EB912F93
:104D200024D1FFE706980168086840F40070086025
:104D3000069801686FF48060486106990020086356
:104D4000069A202182F83D10069981F83E000699C6
:104D5000086C40F004000864FFE70699002081F821
:104D60003C00FFE701208DF81F004FE00498013060
:104D7000002846D0FFE7FCF7DDFD0399401A0499AF
:104D8000884203D8FFE70498D0BBFFE79DF81600E0
:104D900001280CD1FFE7069800684069BDF814109F
:104DA0000840401AB0FA80F0400901900BE00698E4
:104DB00000688069BDF814100840401AB0FA80F00D
:104DC00040090190FFE70198C8B9FFE70699002064
:104DD0000863069A202182F83D10069981F83E006A
:104DE0000699086C40F020000864FFE7069900204F
:104DF00081F83C00FFE701208DF81F0006E0FFE787
:104E0000FFE764E700208DF81F00FFE79DF81F0013
:104E100008B080BD80B584B0029001910092FFE798
:104E200002980068406900F040010020B0EB911F3B
:104E300056D1FFE702980068406900F01001012098
:104E4000B0EB111F1CD1FFE7029801686FF0100052
:104E50004861029900200863029A202182F83D10DF
:104E6000029981F83E000299086C0864FFE70299F4
:104E7000002081F83C00FFE701208DF80F0033E0AF
:104E8000FCF758FD0099401A0199884203D8FFE7C2
:104E9000019820BBFFE702980068406900F04001DC
:104EA0000020B0EB911F19D1FFE7029900200863A1
:104EB000029A202182F83D10029981F83E00029961
:104EC000086C40F020000864FFE70299002081F898
:104ED0003C00FFE701208DF80F0005E0FFE79FE7AA
:104EE00000208DF80F00FFE79DF80F0004B080BD93
:104EF00080B584B0029001910092FFE702980068AB
:104F00004069C1B20020B0EBD11F3DD1FFE702984C
:104F1000FFF72EFD20B1FFE701208DF80F0037E0ED
:104F20000198013078B3FFE7FCF704FD0099401ABF
:104F30000199884203D8FFE7019818BBFFE7029860
:104F400000684069C1B20020B0EBD11F19D1FFE762
:104F5000029900200863029A202182F83D100299EC
:104F600081F83E000299086C40F020000864FFE7D9
:104F70000299002081F83C00FFE701208DF80F0026
:104F800006E0FFE7FFE7B9E700208DF80F00FFE735
:104F90009DF80F0004B080BD83B0029001918DF8A0
:104FA000032000208DF80200FFE79DF802009DF825
:104FB0000310884229DAFFE70298000F092809D870
:104FC000FFE70298000F303001999DF8022001F8A8
:104FD000120009E00299372000EB117001999DF849
:104FE000022001F81200FFE70298000102900198E8
:104FF0009DF8021000EB410100204870FFE79DF88A
:10500000020001308DF80200CFE703B070470000C6
:1050100083B0FFE741F21800C4F20200016841F0DA
:1050200020010160006800F0200002900298FFE774
:10503000FFE741F21800C4F20200016841F00401E8
:105040000160006800F0040001900198FFE7FFE7AD
:1050500041F21800C4F20200016841F00801016049
:10506000006800F0080000900098FFE703B0704768
:1050700080B582B041F22010C2F20000019045F2EA
:105080000041C4F20001016048F2A061C0F20101D8
:10509000416000218160C1604FF480420261416142
:1050A0008161C1610162FCF74BFC18B1FFE7FCF7BD
:1050B0007BFAFFE702B080BD80B588B00021009187
:1050C00007910691059104910391029141F2644088
:1050D000C2F20000019042F60042C4F201020260F6
:1050E00047224260816040F2E732C2600161416163
:1050F0008161FFF735F918B1FFE7FCF755FAFFE7D3
:105100004FF48050049041F26440C2F2000004A9C0
:10511000FFF7F4F918B1FFE7FCF746FAFFE70020C4
:105120000290039041F26440C2F2000002A9FFF72E
:10513000A9F818B1FFE7FCF737FAFFE708B080BD20
:1051400080B540F65C60C2F2000040F20001C2F29D
:105150000001002201F034FC18B1FFE7FCF724FA4B
:10516000FFE740F65C60C2F2000040F22001C2F2AC
:10517000000101F0FBFF18B1FFE7FCF715FAFFE7AC
:1051800040F65C60C2F2000040F24411C2F200013D
:1051900000F028FF18B1FFE7FCF706FAFFE740F63A
:1051A0005C60C2F2000002F017F918B1FFE7FCF7EB
:1051B000FBF9FFE780BD0000FFE7FEE7FFE7FEE742
:1051C00088B0079006910592079800F007000490B8
:1051D0000498C0F10700052803D3FFE704200190DD
:1051E00004E00498C0F107000190FFE701980390E4
:1051F00004980430062803D8FFE70020009003E05D
:10520000049803380090FFE70098029006980399ED
:10521000012202FA01F101390840029B98400599E8
:105220009A40013A1140084308B0704780B596B0E3
:105230001590FFE715980068B0F8440000040028B6
:1052400040F17A83FFE715980068B0F84400ADF8A4
:105250004C00BDF84C0000F00F008DF847009DF8A1
:105260004700002840F05981FFE7BDF84C00C00618
:10527000002846D4FFE7FFE715980068008848F645
:105280000F710840ADF84400BDF8440040F4004000
:10529000159909680880FFE715982830149015982B
:1052A0000068B0F8500014990A7800EBC202159813
:1052B000006800EB4200B0F804046FF39F20C8615F
:1052C00014994869CA691044486115980021FDF78E
:1052D00031F8159890F8240090B1FFE71498806990
:1052E00070B9FFE7159890F8240040F080001599F8
:1052F0000968A1F84C001599002081F82400FFE707
:105300000AE1159800F5B4701490159800680088AB
:10531000ADF84A00BDF84A00000500282FD5FFE788
:1053200015980068B0F8500014990A7800EBC20292
:105330001598006800EB4200B0F80C046FF39F2052
:10534000C8611599086801F52C71149BDA889B8B4C
:1053500004F00EF8FFE715980068008840F68F719A
:105360000840ADF84200BDF8420040F080001599B9
:1053700009680880FFE71598FEF75EF9CBE0BDF8F5
:105380004A000004002840F1C580FFE7FFE71598B8
:105390000068008840F68F710840ADF84000BDF805
:1053A000400040F08000159909680880FFE71598D3
:1053B0000068B0F8500014990A7800EBC202159802
:1053C000006800EB4200B0F80C046FF39F20C86146
:1053D0001498C069B0B1FFE71498406990B1FFE735
:1053E00015980068149B5969DA889B8B03F0C0FFFD
:1053F00014994869CA691044486115980021FCF75E
:10540000ADFFFFE7159800680088ADF84A00BDF8C9
:105410004A00000500287CD4FFE7BDF84A0000F4EC
:105420004050B0F5405F74D0FFE7FFE71598006883
:105430000F9015980068B0F850100F9808440F901E
:105440000F9800F20C400E90FFE70E9908886FF35A
:105450009F200880149800693F2818D3FFE7FFE7D2
:105460001498006940090D901498007CC00620B97A
:10547000FFE70D9801380D90FFE70D9A0E99088807
:1054800040EA822040F400400880FFE720E01498C2
:10549000006930B9FFE70E99088840F400400880A1
:1054A00015E0FFE71498006940080D901498007CFF
:1054B000C00720B1FFE70D9801300D90FFE70D9A6E
:1054C0000E99088840EA82200880FFE7FFE7FFE79F
:1054D000FFE7FFE7FFE71598006800884BF68F713C
:1054E0000840ADF83200BDF8320080F48050ADF8CD
:1054F0003200BDF8320080F40050ADF83200BDF843
:10550000320048F280010843159909680880FFE7D6
:10551000FFE7FFE7FFE7FFE70CE2159800689DF85B
:10552000471030F82100ADF84A00BDF84A000004E9
:10553000002840F1E180FFE7FFE7159800689DF83B
:10554000471030F8210040F68F710840ADF8300068
:10555000BDF8300040F08000159909689DF847209B
:1055600021F82200FFE715989DF8471001EB810113
:1055700000EBC10000F5B47014901498007B08BBD8
:10558000FFE715980068B0F850001499097800EB0F
:10559000C1011598006800EB4100B0F80C046FF3EE
:1055A0009F20ADF84E00BDF84E0050B1FFE71598B2
:1055B0000068149A5169D288BDF84E3003F0D8FEC5
:1055C000FFE775E01498C078022809D1FFE7159825
:1055D0001499BDF84A20FCF78DFFADF84E0066E047
:1055E000FFE7FFE7159800681499097830F8210063
:1055F00048F68F710840ADF82E00BDF82E0048F235
:10560000C001084315990968149A127821F82200FC
:10561000FFE7FFE7159800681499097830F8210032
:105620004004002821D5FFE715980068B0F8500025
:105630001499097800EBC1011598006800EB41004E
:10564000B0F804046FF39F20ADF84E00BDF84E0093
:1056500050B1FFE715980068149A51691289BDF896
:105660004E3003F085FEFFE720E015980068B0F8A3
:1056700050001499097800EBC1011598006800EBFF
:105680004100B0F80C046FF39F20ADF84E00BDF858
:105690004E0050B1FFE715980068149A516952897D
:1056A000BDF84E3003F064FEFFE7FFE7FFE7FFE7DA
:1056B000BDF84E201499C8691044C861BDF84E2049
:1056C00014994869104448611498806938B1FFE71B
:1056D000BDF84E0014990969884206D2FFE7159873
:1056E00014990978FCF73AFE05E0159800681499BA
:1056F00002F010FFFFE7FFE7BDF84A0000060028B0
:1057000040F11781FFE715989DF8471001EB8101E3
:1057100000EBC10028301490FFE7159800689DF851
:10572000471030F8210048F60F710840ADF82C0002
:10573000BDF82C0040F40040159909689DF84720F9
:1057400021F82200FFE71498C078012840F0A180DA
:10575000FFE71499002088611498007B002800F06E
:105760009280FFE7BDF84A004006002846D5FFE7D3
:10577000FFE71498407808BBFFE7FFE7159800683B
:105780000A9015980068B0F850100A9808440A90DA
:105790000A981499097800EB011000F2044009906E
:1057A000FFE7099908886FF39F2008800999088806
:1057B00040F400400880FFE7FFE71DE014984078C0
:1057C000012818D1FFE7FFE71598006807901598A2
:1057D0000068B0F85010079808440790079814998B
:1057E000097800EB011000F20440069006990020B1
:1057F0000880FFE7FFE7FFE7FFE743E0FFE71598D3
:10580000006805901498407808BBFFE7FFE71598FB
:105810000068039015980068B0F850100398084489
:10582000039003981499097800EB011000F20C40E2
:105830000290FFE7029908886FF39F200880029981
:10584000088840F400400880FFE7FFE718E014985C
:105850004078012813D1FFE715980068B0F8501080
:1058600005980844059005981499097800EB0110F3
:1058700000F20C400490049900200880FFE7FFE745
:10588000FFE7FFE7FFE7159814990978FCF752FD49
:105890004EE0BDF84A00C005002841D4FFE7159846
:1058A0000068B0F850001499097800EBC101159810
:1058B000006800EB4100B0F804046FF39F20ADF8DE
:1058C000480014988069BDF84810884207D9FFE75E
:1058D000BDF8482014998869801A886103E01499FA
:1058E00000208861FFE71498806930B9FFE71598B8
:1058F00014990978FCF71EFD11E0BDF848201499B1
:10590000486910444861BDF848201499C86910449A
:10591000C86115980068149902F0FCFDFFE706E0E5
:1059200015981499BDF84A20FCF7E2FEFFE7FFE75F
:10593000FFE7FFE7FFF77EBC002016B080BD000048
:105940007047000082B00190019840F21C01C2F241
:1059500000010968C90844F6D352C1F26202A1FBF2
:105960000221890948430090FFE700BFFFE7009844
:10597000411E00910028F8D1FFE702B070470000F7
:105980007047000080B582B0009000980138B0F1F7
:10599000807F03D3FFE70120019019E000980138D0
:1059A0004EF21401CEF2000108604FF0FF300F21DB
:1059B00003F0A0FD4EF21801CEF2000100200860B5
:1059C0004EF21002CEF20002072111600190FFE7B3
:1059D000019802B080BD000080B5FCF7A7FB80BD38
:1059E00080B596B00CA801902821FAF7BCFC01986C
:1059F000002302930B930A9309930893079306934A
:105A000005930493039301220C924FF480310D917E
:105A10000E9310920222139214914FF4E0111591FB
:105A2000FEF7E2F818B1FFE7FBF7BEFDFFE70F2036
:105A3000079002210891002009904FF480620A9299
:105A40000B9007A8FDF72EFF18B1FFE7FBF7ACFDA1
:105A5000FFE7102003900020069003A8FDF73EFE0C
:105A600018B1FFE7FBF7A0FDFFE716B080BD00000F
:105A70007047000080B541F26440C2F20000FEF7BA
:105A800003FE80BD83B002900191029800680090EF
:105A9000029842F60041C4F20101884215D0FFE7A6
:105AA0000298B0F1804F10D0FFE7029840F2004119
:105AB000C4F20001884208D0FFE7029840F60001D6
:105AC000C4F2000188420AD1FFE7009820F070007C
:105AD000009001984168009808430090FFE7029801
